:100000003EC1000059C1000057C1000055C10000A9
:1000100053C1000051C100004FC100004DC100009C
:100020004BC1000049C100000C948A1C0C94A91C0F
:1000300043C100000C94481D0C946D183EC1000093
:1000400072C10000A6C10000DAC100000EC20000AB
:1000500042C2000076C20000AAC20000DEC2000058
:100060002BC100000C94770827C1000025C10000B7
:1000700023C1000021C100001FC100001DC10000FC
:100080001BC1000019C1000017C1000015C100000C
:1000900013C1000011C100000FC100000DC100001C
:1000A0000BC1000009C1000007C1000005C100002C
:1000B00003C1000001C100000C94731DFDC00000CD
:1000C000FEC4000032C5000066C500009AC50000ED
:1000D000CEC50000F1C00000EFC00000EDC0000080
:1000E000EBC00000E9C00000E7C00000E5C0000070
:1000F000E3C00000E1C00000DFC00000DDC0000080
:10010000DBC00000D9C000000C94E3170C94281841
:100110000C94F1190C94401A0C948F1A0C94CE1A6A
:100120000C94391B0C94A41B0C940F1CC5C000002C
:10013000C3C00000A8C20000DCC2000010C3000061
:1001400044C3000078C30000ACC30000E0C300005B
:1001500014C4000048C400007CC40000ADC000000E
:10016000ABC00000A9C00000A7C00000A5C00000EF
:10017000A3C00000A1C000009FC000009DC00000FF
:100180009BC0000099C0000097C0000095C000000F
:1001900093C0000091C000008FC000008DC000001F
:1001A0008BC0000089C0000087C0000085C000002F
:1001B00083C0000081C000007FC000007DC000003F
:1001C0007BC0000079C0000077C0000075C000004F
:1001D00073C0000071C000006FC000006DC000005F
:1001E0006BC0000069C0000067C0000065C000006F
:1001F00063C0000061C000005FC000000800000094
:10020000BE922449123EABAAAA2ABECDCCCC4C3E0B
:1002100000000080BEABAAAAAA3E00000000BF00FA
:100220000000803F0000000000084178D3BB4387F6
:10023000D1133D190E3CC3BD4282AD2B3E68EC820A
:1002400076BED98FE1A93E4C80EFFFBE01C4FF7F8F
:100250003F000000000007634236B79BD8A71A3959
:10026000685618AEBAAB558C1D3CB7CC5763BD6D04
:10027000EDFD753EF6177231BF000000803F11247E
:100280001FBECFEFCDBFDFE2DEBF11E2A0E0B0E2E4
:10029000E6EFF3E602C005900D92A438B107D9F756
:1002A00028E2A4E8B1E201C01D92AA38B207E1F742
:1002B0000E94D8160C94F931A3CE1F920F92009091
:1002C0003F000F9211242F933F934F935F936F93AF
:1002D0007F938F939F93AF93BF93EF93FF93CF93AE
:1002E000DF93CDB7DEB78091842190918521892B52
:1002F00031F08091842190918521FC010995DF9155
:10030000CF91FF91EF91BF91AF919F918F917F918D
:100310006F915F914F913F912F910F9000923F000D
:100320000F901F9018951F920F9200903F000F9210
:1003300011242F933F934F935F936F937F938F93EA
:100340009F93AF93BF93EF93FF93CF93DF93CDB77B
:10035000DEB78091862190918721892B31F08091A1
:10036000862190918721FC010995DF91CF91FF9122
:10037000EF91BF91AF919F918F917F916F915F911D
:100380004F913F912F910F9000923F000F901F903F
:1003900018951F920F9200903F000F9211242F93F7
:1003A0003F934F935F936F937F938F939F93AF93FD
:1003B000BF93EF93FF93CF93DF93CDB7DEB78091D9
:1003C000882190918921892B31F080918821909109
:1003D0008921FC010995DF91CF91FF91EF91BF91A8
:1003E000AF919F918F917F916F915F914F913F91CD
:1003F0002F910F9000923F000F901F9018951F9221
:100400000F9200903F000F9211242F933F934F9330
:100410005F936F937F938F939F93AF93BF93EF936C
:10042000FF93CF93DF93CDB7DEB780918A21909170
:100430008B21892B31F080918A2190918B21FC01B5
:100440000995DF91CF91FF91EF91BF91AF919F916E
:100450008F917F916F915F914F913F912F910F906D
:1004600000923F000F901F9018951F920F920090DE
:100470003F000F9211242F933F934F935F936F93FD
:100480007F938F939F93AF93BF93EF93FF93CF93FC
:10049000DF93CDB7DEB780918C2190918D21892B90
:1004A00031F080918C2190918D21FC010995DF9193
:1004B000CF91FF91EF91BF91AF919F918F917F91DC
:1004C0006F915F914F913F912F910F9000923F005C
:1004D0000F901F9018951F920F9200903F000F925F
:1004E00011242F933F934F935F936F937F938F9339
:1004F0009F93AF93BF93EF93FF93CF93DF93CDB7CA
:10050000DEB780918E2190918F21892B31F08091DF
:100510008E2190918F21FC010995DF91CF91FF9160
:10052000EF91BF91AF919F918F917F916F915F916B
:100530004F913F912F910F9000923F000F901F908D
:1005400018951F920F9200903F000F9211242F9345
:100550003F934F935F936F937F938F939F93AF934B
:10056000BF93EF93FF93CF93DF93CDB7DEB7809127
:10057000902190919121892B31F08091902190913F
:100580009121FC010995DF91CF91FF91EF91BF91EE
:10059000AF919F918F917F916F915F914F913F911B
:1005A0002F910F9000923F000F901F9018951F926F
:1005B0000F9200903F000F9211242F933F934F937F
:1005C0005F936F937F938F939F93AF93BF93EF93BB
:1005D000FF93CF93DF93CDB7DEB7809192219091B7
:1005E0009321892B31F08091922190919321FC01EC
:1005F0000995DF91CF91FF91EF91BF91AF919F91BD
:100600008F917F916F915F914F913F912F910F90BB
:1006100000923F000F901F9018951F920F9200902C
:100620003F000F9211242F933F934F935F936F934B
:100630007F938F939F93AF93BF93EF93FF93CF934A
:10064000DF93CDB7DEB78091942190919521892BCE
:1006500031F08091942190919521FC010995DF91D1
:10066000CF91FF91EF91BF91AF919F918F917F912A
:100670006F915F914F913F912F910F9000923F00AA
:100680000F901F9018951F920F9200903F000F92AD
:1006900011242F933F934F935F936F937F938F9387
:1006A0009F93AF93BF93EF93FF93CF93DF93CDB718
:1006B000DEB78091962190919721892B31F080911E
:1006C000962190919721FC010995DF91CF91FF919F
:1006D000EF91BF91AF919F918F917F916F915F91BA
:1006E0004F913F912F910F9000923F000F901F90DC
:1006F00018951F920F9200903F000F9211242F9394
:100700003F934F935F936F937F938F939F93AF9399
:10071000BF93EF93FF93CF93DF93CDB7DEB7809175
:10072000982190919921892B31F080919821909175
:100730009921FC010995DF91CF91FF91EF91BF9134
:10074000AF919F918F917F916F915F914F913F9169
:100750002F910F9000923F000F901F9018951F92BD
:100760000F9200903F000F9211242F933F934F93CD
:100770005F936F937F938F939F93AF93BF93EF9309
:10078000FF93CF93DF93CDB7DEB780919A219091FD
:100790009B21892B31F080919A2190919B21FC0122
:1007A0000995DF91CF91FF91EF91BF91AF919F910B
:1007B0008F917F916F915F914F913F912F910F900A
:1007C00000923F000F901F9018951F920F9200907B
:1007D0003F000F9211242F933F934F935F936F939A
:1007E0007F938F939F93AF93BF93EF93FF93CF9399
:1007F000DF93CDB7DEB780919C2190919D21892B0D
:1008000031F080919C2190919D21FC010995DF910F
:10081000CF91FF91EF91BF91AF919F918F917F9178
:100820006F915F914F913F912F910F9000923F00F8
:100830000F901F9018951F920F9200903F000F92FB
:1008400011242F933F934F935F936F937F938F93D5
:100850009F93AF93BF93EF93FF93CF93DF93CDB766
:10086000DEB780919E2190919F21892B31F080915C
:100870009E2190919F21FC010995DF91CF91FF91DD
:10088000EF91BF91AF919F918F917F916F915F9108
:100890004F913F912F910F9000923F000F901F902A
:1008A00018951F920F9200903F000F9211242F93E2
:1008B0003F934F935F936F937F938F939F93AF93E8
:1008C000BF93EF93FF93CF93DF93CDB7DEB78091C4
:1008D000A0219091A121892B31F08091A0219091AC
:1008E000A121FC010995DF91CF91FF91EF91BF917B
:1008F000AF919F918F917F916F915F914F913F91B8
:100900002F910F9000923F000F901F9018951F920B
:100910000F9200903F000F9211242F933F934F931B
:100920005F936F937F938F939F93AF93BF93EF9357
:10093000FF93CF93DF93CDB7DEB78091A221909143
:10094000A321892B31F08091A2219091A321FC0158
:100950000995DF91CF91FF91EF91BF91AF919F9159
:100960008F917F916F915F914F913F912F910F9058
:1009700000923F000F901F9018951F920F920090C9
:100980003F000F9211242F933F934F935F936F93E8
:100990007F938F939F93AF93BF93EF93FF93CF93E7
:1009A000DF93CDB7DEB78091A4219091A521892B4B
:1009B00031F08091A4219091A521FC010995DF914E
:1009C000CF91FF91EF91BF91AF919F918F917F91C7
:1009D0006F915F914F913F912F910F9000923F0047
:1009E0000F901F9018951F920F9200903F000F924A
:1009F00011242F933F934F935F936F937F938F9324
:100A00009F93AF93BF93EF93FF93CF93DF93CDB7B4
:100A1000DEB78091A6219091A721892B31F080919A
:100A2000A6219091A721FC010995DF91CF91FF911B
:100A3000EF91BF91AF919F918F917F916F915F9156
:100A40004F913F912F910F9000923F000F901F9078
:100A500018951F920F9200903F000F9211242F9330
:100A60003F934F935F936F937F938F939F93AF9336
:100A7000BF93EF93FF93CF93DF93CDB7DEB7809112
:100A8000A8219091A921892B31F08091A8219091E2
:100A9000A921FC010995DF91CF91FF91EF91BF91C1
:100AA000AF919F918F917F916F915F914F913F9106
:100AB0002F910F9000923F000F901F9018951F925A
:100AC0000F9200903F000F9211242F933F934F936A
:100AD0005F936F937F938F939F93AF93BF93EF93A6
:100AE000FF93CF93DF93CDB7DEB78091AA2190918A
:100AF000AB21892B31F08091AA219091AB21FC018F
:100B00000995DF91CF91FF91EF91BF91AF919F91A7
:100B10008F917F916F915F914F913F912F910F90A6
:100B200000923F000F901F9018951F920F92009017
:100B30003F000F9211242F933F934F935F936F9336
:100B40007F938F939F93AF93BF93EF93FF93CF9335
:100B5000DF93CDB7DEB78091AC219091AD21892B89
:100B600031F08091AC219091AD21FC010995DF918C
:100B7000CF91FF91EF91BF91AF919F918F917F9115
:100B80006F915F914F913F912F910F9000923F0095
:100B90000F901F9018951F920F9200903F000F9298
:100BA00011242F933F934F935F936F937F938F9372
:100BB0009F93AF93BF93EF93FF93CF93DF93CDB703
:100BC000DEB78091AE219091AF21892B31F08091D9
:100BD000AE219091AF21FC010995DF91CF91FF915A
:100BE000EF91BF91AF919F918F917F916F915F91A5
:100BF0004F913F912F910F9000923F000F901F90C7
:100C000018951F920F9200903F000F9211242F937E
:100C10003F934F935F936F937F938F939F93AF9384
:100C2000BF93EF93FF93CF93DF93CDB7DEB7809160
:100C3000B0219091B121892B31F08091B021909118
:100C4000B121FC010995DF91CF91FF91EF91BF9107
:100C5000AF919F918F917F916F915F914F913F9154
:100C60002F910F9000923F000F901F9018951F92A8
:100C70000F9200903F000F9211242F933F934F93B8
:100C80005F936F937F938F939F93AF93BF93EF93F4
:100C9000FF93CF93DF93CDB7DEB78091B2219091D0
:100CA000B321892B31F08091B2219091B321FC01C5
:100CB0000995DF91CF91FF91EF91BF91AF919F91F6
:100CC0008F917F916F915F914F913F912F910F90F5
:100CD00000923F000F901F901895CF93DF9300D0A4
:100CE0001F92CDB7DEB789839A836B838B8188236C
:100CF00009F45DC089819A81FC018281882309F40D
:100D000040C089819A81FC012581368189819A813F
:100D1000FC018381882F90E0919581959109280F9E
:100D2000391F89819A81FC018781908528173907AD
:100D300058F089819A819C01275F3F4F89819A8170
:100D4000FC012583368372C089819A81FC0125814B
:100D5000368189819A81FC018481482F50E0898104
:100D60009A81FC018381882F90E0BA01681B790B7E
:100D7000CB01280F391F89819A81FC012583368395
:100D800055C089819A81FC012581368189819A81AA
:100D9000FC018381882F90E0919581959109280F1E
:100DA000391F89819A81FC01258336833FC089815F
:100DB0009A81FC012581368189819A81FC01838198
:100DC000882F90E0919581959109280F391F89818D
:100DD0009A81FC01878190852817390758F089810D
:100DE0009A819C01275F3F4F89819A81FC0125836D
:100DF00036831CC089819A81FC01258136818981D5
:100E00009A81FC018481482F50E089819A81FC01FC
:100E10008381882F90E0BA01681B790BCB01280FE2
:100E2000391F89819A81FC012583368389819A81C2
:100E3000FC0113822396CDBFDEBFDF91CF910895D1
:100E4000CF93DF9300D0CDB7DEB789839A838981B2
:100E50009A81FC0185819681FC01108289819A81A9
:100E6000FC012581368189819A81FC018481482F8A
:100E700050E089819A81FC018381882F90E0BA013A
:100E8000681B790BCB01280F391F89819A81FC01DE
:100E9000808191812817390719F189819A81FC0194
:100EA0002081318189819A8109962817390769F54E
:100EB00089819A81FC012581368189819A81FC0191
:100EC0008381882F90E0919581959109280F391F92
:100ED00089819A81FC018781908528173907A9F4B7
:100EE00089819A81FC018281882349F089819A81D4
:100EF000A2D089819A8161E0F0DE8FEF0BC08981F9
:100F00009A8161E0EADE81E005C089819A8160E032
:100F1000E4DE80E00F900F90DF91CF910895CF93A2
:100F2000DF9300D0CDB7DEB789839A8389819A8118
:100F3000FC01838121E0280F89819A81FC012383B0
:100F400089819A81FC01858196819C012F5F3F4FA9
:100F500089819A81FC01258336830F900F90DF9160
:100F6000CF910895CF93DF9300D0CDB7DEB78983BB
:100F70009A8389819A81FC012081318189819A81BA
:100F8000FC01878190852817390759F489819A8156
:100F90009C01275F3F4F89819A81FC012083318327
:100FA00012C089819A81FC012081318189819A81D5
:100FB000FC018481882F90E0280F391F89819A8154
:100FC000FC01208331830F900F90DF91CF91089522
:100FD000CF93DF9300D01F92CDB7DEB789839A837A
:100FE0006B8389819A81FC01858196812B81FC012B
:100FF000208389819A8193DF2396CDBFDEBFDF9165
:10100000CF910895CF93DF9300D01F92CDB7DEB775
:1010100089839A836B8389819A816B81D9DF8B81E4
:101020008A3019F489819A810BDF2396CDBFDEBF08
:10103000DF91CF910895CF93DF9300D0CDB7DEB786
:1010400089839A8389819A81FC0180819181FC0145
:10105000108289819A81FC012081318189819A8164
:10106000FC018481882F90E0280F391F89819A81A3
:10107000FC014581568189819A81FC018381882FF9
:1010800090E0919581959109840F951F2817390754
:1010900019F189819A81FC012081318189819A81AC
:1010A000FC018781908528173907C1F489819A81CD
:1010B000FC012581368189819A81FC018381882FF9
:1010C00090E0919581959109280F391F89819A8126
:1010D00009962817390711F480E004C089819A81A4
:1010E00041DF81E00F900F90DF91CF9108951F9223
:1010F0000F9200903F000F9211242F933F934F9334
:101100005F936F937F938F939F93AF93BF93EF936F
:10111000FF93CF93DF93CDB7DEB780EA98E0FC0171
:101120008081282F8091B8219091B921622F6ADFA8
:1011300080EA98E0FC018081882F90E0292F2F938E
:101140008F938EE190E2892F8F938EE190E28F93BF
:101150000E94F52E0F900F900F900F90DF91CF917E
:10116000FF91EF91BF91AF919F918F917F916F917F
:101170005F914F913F912F910F9000923F000F9000
:101180001F901895CF93DF93CDB7DEB780E098E43A
:10119000A8EEB1E0BC01CD01DF91CF910895CF93CE
:1011A000DF931F92CDB7DEB71982ECDFDC01CB01F4
:1011B0002981222F30E004C0B695A7959795879591
:1011C0002A95D2F7BC01CD010F90DF91CF91089500
:1011D000CF93DF93CDB7DEB7E2DFDC01CB01BC01FB
:1011E000CD01DF91CF910895CF93DF93CDB7DEB7D7
:1011F000EFDFDC01CB01BC01CD01DF91CF91089580
:10120000CF93DF93CDB7DEB7EFDFDC01CB01BC01BD
:10121000CD01DF91CF910895615071098109910944
:10122000D9F70895CF93DF9300D000D0CDB7DEB7C4
:101230008B839C838B819C810E946813882F90E014
:10124000982F882789839A838B819C810E946813B9
:10125000882F90E029813A81820F931F89839A8396
:1012600089819A812496CDBFDEBFDF91CF91089509
:10127000CF93DF93CDB7DEB72697CDBFDEBF8D838B
:101280009E838D819E810E946813882F90E0A0E04C
:10129000B0E0DC019927882789839A83AB83BC83DC
:1012A0008D819E810E946813882F90E0A0E0B0E0BD
:1012B000BA2FA92F982F882729813A814B815C81E9
:1012C000820F931FA41FB51F89839A83AB83BC83AE
:1012D0008D819E810E946813882F90E0A0E0B0E08D
:1012E00029813A814B815C81820F931FA41FB51F16
:1012F00089839A83AB83BC8389819A81AB81BC81CA
:10130000BC01CD012696CDBFDEBFDF91CF91089500
:101310002F923F924F925F926F927F928F929F9205
:10132000AF92BF92CF92DF92EF92FF920F931F93F3
:10133000CF93DF93CDB7DEB72A97CDBFDEBF8983CA
:101340009A8389819A81FC0180810E94DB146EE17D
:1013500080EC98E00E94221489819A81FC018081AE
:101360000E9485154DDFDC01CB011C012D01612C94
:10137000712C4301A22CB32CC42CD52CE62CF72CB9
:10138000082D192D2A2D3B2D4C2D5D2D6E2D7F2DD9
:10139000802F912F02E00E941A2D2B833C834D83D6
:1013A0005E836F83788789879A87AB80BC80CD8086
:1013B000DE80EF80F88409851A852A2D3B2D4C2D7F
:1013C0005D2D6E2D7F2D802F912FA22CB32CC42C40
:1013D000D52CE62CF72C082D192D0E94512DA22E6C
:1013E000B32EC42ED52EE62EF72E082F192F2A2D18
:1013F0003B2D4C2D5D2D6E2D7F2D802F912F295152
:101400003C4F4F4F5F4F6F4F7F4F8F4F9F4FA22EDD
:10141000B32EC42ED52EE62EF72E082F192F2A2DE7
:101420003B2D4C2D5D2D6E2D7F2D802F912F0E94F9
:10143000402ADC01CB0120E030E84BEB55E4BC0155
:10144000CD010E942C29DC01CB01BC01CD010E9401
:101450009929A22EB32EC42ED52EE62EF72E082FB4
:10146000192FD601C501BC01CD01D6DE2A96CDBF0C
:10147000DEBFDF91CF911F910F91FF90EF90DF9032
:10148000CF90BF90AF909F908F907F906F905F9024
:101490004F903F902F900895CF93DF9300D0CDB71A
:1014A000DEB789839A8389819A8132DF89819A8123
:1014B000FC0180810E94DB1462EA80EC98E00E94CB
:1014C000221480EC98E0AEDE9C0189819A81FC01B7
:1014D0002183328389819A81FC0180810E94851554
:1014E00089819A81FC0180810E94DB1464EA80EC8E
:1014F00098E00E94221480EC98E094DE9C0189819F
:101500009A81FC012383348389819A81FC01808143
:101510000E94851589819A81FC0180810E94DB14DB
:1015200066EA80EC98E00E94221480EC98E07ADE73
:101530009C0189819A81FC012583368389819A8166
:10154000FC0180810E94851589819A81FC0180813E
:101550000E94DB1468EA80EC98E00E94221480EC80
:1015600098E060DE9C0189819A81FC0127833087A5
:1015700089819A81FC0180810E94851589819A81E7
:10158000FC0180810E94DB146AEA80EC98E00E94F2
:10159000221480EC98E046DE9C0189819A81FC014E
:1015A0002187328789819A81FC0180810E9485157B
:1015B00089819A81FC0180810E94DB146CEA80ECB5
:1015C00098E00E94221480EC98E02CDE9C01898136
:1015D0009A81FC012387348789819A81FC0180816B
:1015E0000E9485150F900F90DF91CF9108952F9253
:1015F0003F924F925F926F927F928F929F92AF92A3
:10160000BF92CF92DF92EF92FF920F931F93CF93EF
:10161000DF93CDB7DEB7C655D109CDBFDEBF8DABE9
:101620009EAB8DA99EA9FC0180810E94DB1468E419
:1016300080EC98E00E9422148DA99EA9FC01808173
:101640000E948515DDDDDC01CB019C01AD0160E070
:1016500070E0CB01822E932EA42EB52EC62ED72E4F
:10166000E82EF92E282D392D4A2D5B2D6C2D7D2D40
:101670008E2D9F2D01E00E941A2D2FAB38AF49AF60
:101680005AAF6BAF7CAF8DAF9EAF8FA898ACA9ACB3
:10169000BAACCBACDCACEDACFEAC282D392D4A2D70
:1016A0005B2D6C2D7D2D8E2D9F2D02E00E941A2D1D
:1016B0002FAF21963FAF219722964FAF22972396C7
:1016C0005FAF239724966FAF249725967FAF25971A
:1016D00026968FAF269727969FAF2797282D392DCF
:1016E0004A2D5B2D6C2D7D2D8E2D9F2DAFAC21961F
:1016F000BFAC21972296CFAC22972396DFAC2397DD
:101700002496EFAC24972596FFAC259726960FAD2F
:10171000269727961FAD27970E94512DA22EB32EF4
:10172000C42ED52EE62EF72E082F192F2A2D3B2D4D
:101730004C2D5D2D6E2D7F2D802F912F29513C4FEB
:101740004F4F5F4F6F4F7F4F8F4F9F4FA22EB32E44
:10175000C42ED52EE62EF72E082F192F2A2D3B2D1D
:101760004C2D5D2D6E2D7F2D802F912F0E94402AB4
:10177000DC01CB0120E030E84BEB55E4BC01CD01AE
:101780000E942C29DC01CB01BC01CD010E949929CA
:10179000A22EB32EC42ED52EE62EF72E082F192FEB
:1017A000D601C501BC01CD0137DD8DA99EA9FC0183
:1017B00080810E94DB1460E080EC98E00E9422149B
:1017C00080EC98E055DDDC01CB012DA93EA9F901A3
:1017D00085879687A787B08B8DA99EA9FC018081FC
:1017E0000E9485158DA99EA9FC0180810E94DB14B1
:1017F00068E580EC98E00E9422148DA99EA9FC0166
:1018000080810E948515FCDCDC01CB019C01AD01CF
:1018100060E070E0CB01822E932EA42EB52EC62E52
:10182000D72EE82EF92E282D392D4A2D5B2D6C2D23
:101830007D2D8E2D9F2D01E00E941A2D28962FAF11
:10184000289729963FAF29972A964FAF2A972B962C
:101850005FAF2B972C966FAF2C972D967FAF2D9760
:101860002E968FAF2E972F969FAF2F9728968FACDF
:10187000289729969FAC29972A96AFAC2A972B9642
:10188000BFAC2B972C96CFAC2C972D96DFAC2D9719
:101890002E96EFAC2E972F96FFAC2F97282D392D33
:1018A0004A2D5B2D6C2D7D2D8E2D9F2D02E00E94EB
:1018B0001A2D60962FAF609761963FAF6197629641
:1018C0004FAF629763965FAF639764966FAF64970D
:1018D00065967FAF659766968FAF669767969FAF61
:1018E0006797282D392D4A2D5B2D6C2D7D2D8E2D42
:1018F0009F2D6096AFAC60976196BFAC6197629682
:10190000CFAC62976396DFAC63976496EFAC649755
:101910006596FFAC659766960FAD669767961FADA7
:1019200067970E94512DA22EB32EC42ED52EE62EDF
:10193000F72E082F192F2A2D3B2D4C2D5D2D6E2DA6
:101940007F2D802F912F29513C4F4F4F5F4F6F4F6D
:101950007F4F8F4F9F4FA22EB32EC42ED52EE62E33
:10196000F72E082F192F2A2D3B2D4C2D5D2D6E2D76
:101970007F2D802F912F0E94402ADC01CB0120E097
:1019800030E84BEB55E4BC01CD010E942C29DC0171
:10199000CB01BC01CD010E949929A22EB32EC42EE9
:1019A000D52EE62EF72E082F192FD601C501BC0122
:1019B000CD0132DC8DA99EA9FC018081FCD760E0BD
:1019C00080EC98E03FD780EC98E052DCDC01CB0162
:1019D0002DA93EA9F901818B928BA38BB48B8DA984
:1019E0009EA9FC0180810E94851519A21AA21BA242
:1019F0001CA21DA21EA21FA218A619A61AA61BA6EB
:101A00001CA61DA61EA61FA618AA19AA1AAA1BAABA
:101A10001CAA19821A821B821C821D821E821F82AE
:101A2000188619861A861B861C861D861E861F86AA
:101A3000188A198A1A8A1B8A1C8A1D8A1E8A1F8A7A
:101A4000188E198E1A8E1B8E1C8E1D8E1E8E1F8E4A
:101A500018A28DA99EA9FC0181899289A389B489C4
:101A6000BC01CD010E94032A6B017C018DA99EA9B6
:101A7000FC0181859285CC01A0E0B0E0BC01CD01E4
:101A80000E94032ADC01CB0120E030E040E853E46F
:101A9000BC01CD010E94242BDC01CB019C01AD01D6
:101AA000C701B6010E94C728DC01CB018DA39EA30C
:101AB000AFA3B8A78DA99EA9FC0183819481CC0115
:101AC000A0E0B0E0BC01CD010E94032ADC01CB0103
:101AD00020E030E040E058E4BC01CD010E94242B1E
:101AE000DC01CB016C017D018DA99EA9FC018781E0
:101AF0009085CC01A0E0B0E0BC01CD010E94032A9A
:101B0000DC01CB012DA13EA14FA158A5BC01CD0107
:101B10000E94242BDC01CB0120E030E040E852E4BD
:101B2000BC01CD010E942C29DC01CB019C01AD013F
:101B3000C701B6010E94C828DC01CB01BC01CD0160
:101B40000E949429A22EB32EC42ED52EE62EF72E57
:101B5000082F192FA982BA82CB82DC82ED82FE8205
:101B60000F8318878DA99EA9FC0181819281CC01E8
:101B7000A0E0B0E0BC01CD010E94032ADC01CB0152
:101B800020E030E040E857E4BC01CD010E94242B66
:101B9000DC01CB016C017D018DA99EA9FC01858131
:101BA0009681CC01A0E0B0E0BC01CD010E94032AE7
:101BB000DC01CB012DA13EA14FA158A5BC01CD0157
:101BC0000E94242BDC01CB0120E030E040E053E414
:101BD000BC01CD010E942C29DC01CB019C01AD018F
:101BE000C701B6010E94C828DC01CB01BC01CD01B0
:101BF0000E949429A22EB32EC42ED52EE62EF72EA7
:101C0000082F192FA986BA86CB86DC86ED86FE863C
:101C10000F87188B8DA99EA9FC0183859485CC0123
:101C2000A0E0B0E0BC01CD010E94032ADC01CB01A1
:101C300020E030E040E05BE4BC01CD010E942C29B3
:101C4000DC01CB012DA13EA14FA158A5BC01CD01C6
:101C50000E94242BDC01CB0120E030E04AEF54E469
:101C6000BC01CD010E94C828DC01CB01BC01CD0123
:101C70000E94CE29DC01CB018DA79EA7AFA7B8ABF0
:101C80008DA59EA5AFA5B8A98093FF2290930023B0
:101C9000A0930123B09302238DA59EA5AFA5B8A95B
:101CA000803D9740A105B1050CF08CC12DA13EA14E
:101CB0004FA158A56DA17EA18FA198A50E94242BAC
:101CC000DC01CB0120E030E040E05FE4BC01CD016D
:101CD0000E942C29DC01CB0189A79AA7ABA7BCA73E
:101CE0008DA59EA5AFA5B8A9805D9740A109B109B2
:101CF000BC01CD010E94052ADC01CB0120E030E0CF
:101D000040E050E4BC01CD010E94872BDC01CB01F7
:101D100020E030E044E752E4BC01CD010E94242BD6
:101D2000DC01CB0120E030E040E851E4BC01CD0112
:101D30000E942C29DC01CB01BC01CD010E94942919
:101D4000A22EB32EC42ED52EE62EF72E082F192F35
:101D5000A98ABA8ACB8ADC8AED8AFE8A0F8B188F11
:101D60008DA59EA5AFA5B8A9805D9740A109B10931
:101D7000BC01CD010E94052ADC01CB0120E030E04E
:101D800040E050E4BC01CD010E94872BDC01CB0177
:101D90009C01AD01BC01CD010E94C828DC01CB0132
:101DA000BC01CD010E949429A22EB32EC42ED52EA3
:101DB000E62EF72E082F192FA98EBA8ECB8EDC8E29
:101DC000ED8EFE8E0F8F18A38DA59EA5AFA5B8A989
:101DD00084329A4FAF4FBF4F0CF094C029893A8993
:101DE0004B895C896D897E898F89988D0E94FF2936
:101DF0006B017C018DA59EA5AFA5B8A984529A4F11
:101E0000AF4FBF4FBC01CD010E94052ADC01CB01C1
:101E100020E030E040E050E4BC01CD010E94872B7F
:101E2000DC01CB0120E030E040E751E4BC01CD0112
:101E30000E94242BDC01CB019C01AD01C701B6013E
:101E40000E94C828DC01CB01BC01CD010E9494296D
:101E5000A22EB32EC42ED52EE62EF72E082F192F24
:101E6000A98ABA8ACB8ADC8AED8AFE8A0F8B188F00
:101E7000298D3A8D4B8D5C8D6D8D7E8D8F8D98A1CA
:101E80000E94FF296B017C018DA59EA5AFA5B8A975
:101E900084529A4FAF4FBF4FBC01CD010E94052A1B
:101EA000DC01CB0120E030E040E050E4BC01CD019A
:101EB0000E94872BDC01CB0120E030E040E051E4C0
:101EC000BC01CD010E94242BDC01CB019C01AD01A2
:101ED000C701B6010E94C828DC01CB01BC01CD01BD
:101EE0000E949429A22EB32EC42ED52EE62EF72EB4
:101EF000082F192FA98EBA8ECB8EDC8EED8EFE8E1A
:101F00000F8F18A36DA57EA58FA598A90E94052AFD
:101F1000DC01CB0129A53AA54BA55CA5BC01CD01EF
:101F20000E94C728DC01CB01BC01CD010E94CE2953
:101F3000DC01CB018DA79EA7AFA7B8AB29813A8161
:101F40004B815C816D817E818F819885A988BA885B
:101F5000CB88DC88ED88FE880F89188D0E945A2D69
:101F6000A22EB32EC42ED52EE62EF72E082F192F13
:101F7000A982BA82CB82DC82ED82FE820F8318872F
:101F800029853A854B855C856D857E858F85988909
:101F9000A98CBA8CCB8CDC8CED8CFE8C0F8D18A1AF
:101FA0000E945A2DA22EB32EC42ED52EE62EF72E29
:101FB000082F192FA986BA86CB86DC86ED86FE8689
:101FC0000F87188B8DA99EA9FC0185859685A7850D
:101FD000B0891C012D01612C712C4301A984BA84A4
:101FE000CB84DC84ED84FE840F851889222D332D6B
:101FF000442D552D662D772D882D992D0E94C92CA5
:10200000A22EB32EC42ED52EE62EF72E082F192F72
:102010002A2D3B2D4C2D5D2D6E2D7F2D802F912F48
:10202000A22EB32EC42ED52EE62EF72E082F192F52
:102030002A2D3B2D4C2D5D2D6E2D7F2D802F912F28
:10204000A0E00E94632D04F52A2D3B2D4C2D5D2D23
:102050006E2D7F2D802F912F21503109404E5F4FE3
:102060006F4F7F4F8F4F9F4F222E332E442E552E72
:10207000662E772E882E992EA22CB32CC42CD52C0C
:10208000E62CF72C082D192D2A2D3B2D4C2D5D2DDE
:102090006E2D7F2D802F912F05E10E94332D222E52
:1020A000332E442E552E662E772E882E992EA22C56
:1020B000B32CC42CD52CE62CF72C082D192D2A2D49
:1020C0003B2D4C2D5D2D6E2D7F2D802F912FA980C6
:1020D000BA80CB80DC80ED80FE800F8118850E9465
:1020E0005A2D222E332E442E552E662E772E882ED4
:1020F000992EA22CB32CC42CD52CE62CF72C082D11
:10210000192D2A2D3B2D4C2D5D2D6E2D7F2D802FD1
:10211000912FA0E00E94632D04F52A2D3B2D4C2D1C
:102120005D2D6E2D7F2D802F912F215030484F4FE8
:102130005F4F6F4F7F4F8F4F9F4F222E332E442E76
:10214000552E662E772E882E992EA22CB32CC42CB9
:10215000D52CE62CF72C082D192D2A2D3B2D4C2D96
:102160005D2D6E2D7F2D802F912F0FE00E94332D3E
:10217000A22EB32EC42ED52EE62EF72E082F192F01
:102180002A2D3B2D4C2D5D2D6E2D7F2D802F912FD7
:1021900029AB3AAB4BAB5CAB89A99AA9ABA9BCA95B
:1021A00080932B2290932C22A0932D22B0932E2249
:1021B00069A97AA98BA99CA90E94052ADC01CB01F7
:1021C00020E836EE45EC57E4BC01CD010E942C29F5
:1021D000DC01CB012FEC39ED42E45EE3BC01CD0123
:1021E0000E94872BDC01CB019C01AD0160E070E017
:1021F00080E89FE30E94C728DC01CB0121EB33E19B
:102200004DE257E4BC01CD010E94242BDC01CB013F
:10221000BC01CD010E94CE29DC01CB0189A39AA388
:10222000ABA3BCA369A17AA18BA19CA10E94052AA2
:10223000DC01CB01BC01CD01CA5ADF4FCDBFDEBFEF
:10224000DF91CF911F910F91FF90EF90DF90CF9092
:10225000BF90AF909F908F907F906F905F904F90C6
:102260003F902F900895CF93DF93CDB7DEB78CE3E7
:1022700098E2BDD9DC01CB01BC01CD010E94CE2981
:10228000DC01CB01809361289093622880916128C2
:10229000909162288093632890936428DF91CF9176
:1022A0000895CF93DF93CDB7DEB780E098E4A8EE32
:1022B000B1E0BC01CD01DF91CF910895CF93DF93C1
:1022C0001F92CDB7DEB71982ECDFDC01CB0129818B
:1022D000222F30E004C0B695A795979587952A954B
:1022E000D2F7BC01CD010F90DF91CF910895CF932C
:1022F000DF93CDB7DEB7E2DFDC01CB01BC01CD015E
:10230000DF91CF910895CF93DF93CDB7DEB7EFDFA5
:10231000DC01CB01BC01CD01DF91CF910895CF93BA
:10232000DF93CDB7DEB7EFDFDC01CB01BC01CD0120
:10233000DF91CF910895CF93DF9300D0CDB7DEB773
:1023400089839A8389819A81892B09F4D7C08981ED
:102350009A81803C910521F460E180E0DDD7CEC018
:1023600089819A818115944021F464E080E0D4D77A
:10237000C5C089819A818038914021F462E080E073
:10238000CBD7BCC089819A818115914021F461E04D
:1023900080E0C2D7B3C089819A818038934021F40C
:1023A00061E081E0B9D7AAC089819A818115924004
:1023B00021F462E081E0B0D7A1C089819A818032A6
:1023C000934021F464E082E0A7D798C089819A8184
:1023D0008115984021F461E083E09ED78FC0898108
:1023E0009A818115994021F461E084E095D786C0F7
:1023F00089819A8181159A4021F461E085E08CD72A
:102400007DC089819A818034984021F462E083E024
:1024100083D774C089819A818034994021F462E025
:1024200084E07AD76BC089819A818039984021F401
:1024300064E083E071D762C089819A8180399940D4
:1024400021F464E084E068D759C089819A81803999
:102450009A4021F464E085E05FD750C089819A8179
:10246000803C984021F468E083E056D747C08981DA
:102470009A81803C994021F468E084E04DD73EC0C9
:1024800089819A81803A984021F460E183E044D7C1
:1024900035C089819A81803A994021F460E184E0D5
:1024A0003BD72CC089819A81803A9A4021F460E11F
:1024B00085E032D723C089819A81803B984021F4FE
:1024C00060E283E029D71AC089819A81803B9940D4
:1024D00021F460E284E020D711C089819A8180389C
:1024E000944021F460E483E017D708C089819A8181
:1024F000803A944019F460E485E00ED70F900F9075
:10250000DF91CF9108956150710981099109D9F73F
:102510000895CF93DF93CDB7DEB72A97CDBFDEBF47
:102520008A878A8589831A8289818B838B818C83B0
:102530008C818695869586958D838D81882F90E0F8
:10254000880F991F82959295907F9827807F982772
:102550009A5F8E839F838A818823A9F089818887E7
:102560008885882F90E09C012770332781E090E0D8
:1025700002C0880F991F2A95E2F7282F8E819F812C
:10258000FC01258314C0898189878985882F90E083
:102590009C012770332781E090E002C0880F991FCB
:1025A0002A95E2F7282F8E819F81FC0126832A96A7
:1025B000CDBFDEBFDF91CF910895CF93DF93CDB72D
:1025C000DEB72A97CDBFDEBF8A878A85898381E0FF
:1025D0008A8389818B838B818C838C818695869578
:1025E00086958D838D81882F90E0880F991F829525
:1025F0009295907F9827807F98279A5F8E839F83FC
:102600008A818823A9F0898188878885882F90E02E
:102610009C012770332781E090E002C0880F991F4A
:102620002A95E2F7282F8E819F81FC01258314C013
:10263000898189878985882F90E09C0127703327BD
:1026400081E090E002C0880F991F2A95E2F7282FB9
:102650008E819F81FC0126832A96CDBFDEBFDF914C
:10266000CF910895CF93DF9300D000D0CDB7DEB7E0
:1026700089839A836B837C8389819A815CDE8B81D9
:102680009C81FC018181282F206B8B819C81FC0126
:1026900021838B819C81FC018081282F2F7B8B8162
:1026A0009C81FC0120838B819C81FC018481282FEB
:1026B000206B8B819C81FC01248389819A8120ED90
:1026C000FC0120832496CDBFDEBFDF91CF9108951A
:1026D000AF92BF92CF92DF92EF92FF920F931F9330
:1026E000CF93DF9300D0CDB7DEB789839A8317DE0F
:1026F000DC01CB015C016D01E12CF12C87012A2D5D
:102700003B2D4C2D5D2D6E2D7F2D802F912F29512E
:102710003C4F4F4F5F4F6F4F7F4F8F4F9F4FA22EBA
:10272000B32EC42ED52EE62EF72E082F192F2A2DC4
:102730003B2D4C2D5D2D6E2D7F2D802F912F0E94D6
:10274000402ADC01CB0120E030E84BEB55E4BC0132
:10275000CD010E942C29DC01CB01BC01CD010E94DE
:102760009929A22EB32EC42ED52EE62EF72E082F91
:10277000192FD601C501BC01CD01C5DE89819A8121
:102780002FEFFC012383000089819A81FC01828163
:102790008823D4F7C4DDDC01CB015C016D01E12CA1
:1027A000F12C87012A2D3B2D4C2D5D2D6E2D7F2D7B
:1027B000802F912F29513C4F4F4F5F4F6F4F7F4FCD
:1027C0008F4F9F4FA22EB32EC42ED52EE62EF72E5E
:1027D000082F192F2A2D3B2D4C2D5D2D6E2D7F2D71
:1027E000802F912F0E94402ADC01CB0120E030E8AD
:1027F0004BEB55E4BC01CD010E942C29DC01CB013F
:10280000BC01CD010E949929A22EB32EC42ED52E33
:10281000E62EF72E082F192FD601C501BC01CD01D8
:1028200072DE89819A81FC0183810F900F90DF9184
:10283000CF911F910F91FF90EF90DF90CF90BF90BD
:10284000AF900895AF92BF92CF92DF92EF92FF9236
:102850000F931F93CF93DF9300D01F92CDB7DEB7B6
:1028600089839A836B835BDDDC01CB015C016D01A5
:10287000E12CF12C87012A2D3B2D4C2D5D2D6E2D49
:102880007F2D802F912F29513C4F4F4F5F4F6F4F1E
:102890007F4F8F4F9F4FA22EB32EC42ED52EE62EE4
:1028A000F72E082F192F2A2D3B2D4C2D5D2D6E2D27
:1028B0007F2D802F912F0E94402ADC01CB0120E048
:1028C00030E84BEB55E4BC01CD010E942C29DC0122
:1028D000CB01BC01CD010E949929A22EB32EC42E9A
:1028E000D52EE62EF72E082F192FD601C501BC01D3
:1028F000CD0109DE89819A812B81FC0123830000AF
:1029000089819A81FC0182818823D4F708DDDC016A
:10291000CB015C016D01E12CF12C87012A2D3B2DAF
:102920004C2D5D2D6E2D7F2D802F912F29513C4FE9
:102930004F4F5F4F6F4F7F4F8F4F9F4FA22EB32E42
:10294000C42ED52EE62EF72E082F192F2A2D3B2D1B
:102950004C2D5D2D6E2D7F2D802F912F0E94402AB2
:10296000DC01CB0120E030E84BEB55E4BC01CD01AC
:102970000E942C29DC01CB01BC01CD010E949929C8
:10298000A22EB32EC42ED52EE62EF72E082F192FE9
:10299000D601C501BC01CD01B6DD2396CDBFDEBF9A
:1029A000DF91CF911F910F91FF90EF90DF90CF902B
:1029B000BF90AF900895AF92BF92CF92DF92EF9207
:1029C000FF920F931F93CF93DF931F92CDB7DEB784
:1029D0008983A5DCDC01CB015C016D01E12CF12CCC
:1029E00087012A2D3B2D4C2D5D2D6E2D7F2D802FA7
:1029F000912F29513C4F4F4F5F4F6F4F7F4F8F4F5C
:102A00009F4FA22EB32EC42ED52EE62EF72E082FC2
:102A1000192F2A2D3B2D4C2D5D2D6E2D7F2D802FB6
:102A2000912F0E94402ADC01CB0120E030E84BEBE3
:102A300055E4BC01CD010E942C29DC01CB01BC0175
:102A4000CD010E949929A22EB32EC42ED52EE62E9A
:102A5000F72E082F192FD601C501BC01CD0153DD7A
:102A6000898157DD5CDCDC01CB015C016D01E12C6F
:102A7000F12C87012A2D3B2D4C2D5D2D6E2D7F2DA8
:102A8000802F912F29513C4F4F4F5F4F6F4F7F4FFA
:102A90008F4F9F4FA22EB32EC42ED52EE62EF72E8B
:102AA000082F192F2A2D3B2D4C2D5D2D6E2D7F2D9E
:102AB000802F912F0E94402ADC01CB0120E030E8DA
:102AC0004BEB55E4BC01CD010E942C29DC01CB016C
:102AD000BC01CD010E949929A22EB32EC42ED52E61
:102AE000E62EF72E082F192FD601C501BC01CD0106
:102AF0000ADD0F90DF91CF911F910F91FF90EF9022
:102B0000DF90CF90BF90AF900895AF92BF92CF92D9
:102B1000DF92EF92FF920F931F93CF93DF931F9259
:102B2000CDB7DEB78983FBDBDC01CB015C016D0136
:102B3000E12CF12C87012A2D3B2D4C2D5D2D6E2D86
:102B40007F2D802F912F29513C4F4F4F5F4F6F4F5B
:102B50007F4F8F4F9F4FA22EB32EC42ED52EE62E21
:102B6000F72E082F192F2A2D3B2D4C2D5D2D6E2D64
:102B70007F2D802F912F0E94402ADC01CB0120E085
:102B800030E84BEB55E4BC01CD010E942C29DC015F
:102B9000CB01BC01CD010E949929A22EB32EC42ED7
:102BA000D52EE62EF72E082F192FD601C501BC0110
:102BB000CD01A9DC898101DDB2DBDC01CB015C0147
:102BC0006D01E12CF12C87012A2D3B2D4C2D5D2D23
:102BD0006E2D7F2D802F912F29513C4F4F4F5F4FEE
:102BE0006F4F7F4F8F4F9F4FA22EB32EC42ED52EE7
:102BF000E62EF72E082F192F2A2D3B2D4C2D5D2D5B
:102C00006E2D7F2D802F912F0E94402ADC01CB0159
:102C100020E030E84BEB55E4BC01CD010E942C29AB
:102C2000DC01CB01BC01CD010E949929A22EB32E5B
:102C3000C42ED52EE62EF72E082F192FD601C5014A
:102C4000BC01CD0160DC0F90DF91CF911F910F91FE
:102C5000FF90EF90DF90CF90BF90AF900895CF930B
:102C6000DF93CDB7DEB780E098E4A8EEB1E0BC0119
:102C7000CD01DF91CF910895CF93DF931F92CDB710
:102C8000DEB71982ECDFDC01CB012981222F30E095
:102C900004C0B695A795979587952A95D2F7BC015C
:102CA000CD010F90DF91CF910895CF93DF93CDB7F2
:102CB000DEB7E2DFDC01CB01BC01CD01DF91CF91BA
:102CC0000895CF93DF93CDB7DEB7EFDFDC01CB0103
:102CD000BC01CD01DF91CF910895CF93DF93CDB7A4
:102CE000DEB7EFDFDC01CB01BC01CD01DF91CF917D
:102CF00008956150710981099109D9F70895CF9319
:102D0000DF93CDB7DEB72797CDBFDEBF8D836E8350
:102D10007F838D8189838981882F90E09C01277032
:102D2000332781E090E002C0880F991F2A95E2F7CF
:102D3000682F8D818A838A818B838B818695869586
:102D400086958C838C81882F90E0880F991F8295BF
:102D50009295907F9827807F98279A5F9C018E811B
:102D60009F81AC01C9010E9450282796CDBFDEBFCC
:102D7000DF91CF910895CF93DF93CDB7DEB7F8946D
:102D800081E0DF91CF910895CF93DF9300D0CDB74D
:102D9000DEB789839A838FE390E029813A81F90134
:102DA0002081FC0120830F900F90DF91CF91089537
:102DB0002F923F924F925F926F927F928F929F924B
:102DC000AF92BF92CF92DF92EF92FF920F931F9339
:102DD000CF93DF93CDB7DEB72897CDBFDEBF0E947C
:102DE000AD280E94AF250E94A0250E94C0260E9407
:102DF000312684E180933C2860E476E080EC98E022
:102E000031DC80913C2861E070E079DF8CE398E26E
:102E10000E944C0A62DFDC01CB011C012D01612CF8
:102E2000712C4301A22CB32CC42CD52CE62CF72CEE
:102E3000082D192D2A2D3B2D4C2D5D2D6E2D7F2D0E
:102E4000802F912F02E00E941A2DA22EB32EC42EA5
:102E5000D52EE62EF72E082F192F2A2D3B2D4C2D7F
:102E60005D2D6E2D7F2D802F912FA22CB32CC42C85
:102E7000D52CE62CF72C082D192D0E945A2DA22EA8
:102E8000B32EC42ED52EE62EF72E082F192F2A2D5D
:102E90003B2D4C2D5D2D6E2D7F2D802F912F03E02E
:102EA0000E941A2D29833A834B835C836D837E8332
:102EB0008F839887A980BA80CB80DC80ED80FE80EC
:102EC0000F8118852A2D3B2D4C2D5D2D6E2D7F2DCC
:102ED000802F912FA22CB32CC42CD52CE62CF72CB0
:102EE000082D192D0E94512DA22EB32EC42ED52EA1
:102EF000E62EF72E082F192F2A2D3B2D4C2D5D2D58
:102F00006E2D7F2D802F912F03E00E941A2D222EEF
:102F1000332E442E552E662E772E882E992EA22CD7
:102F2000B32CC42CD52CE62CF72C082D192D2A2CCB
:102F30003B2C4C2C5D2C6E2C7F2C802E912E222D28
:102F4000332D442D552D662D772D882D992D295102
:102F50003C4F4F4F5F4F6F4F7F4F8F4F9F4FA22E72
:102F6000B32EC42ED52EE62EF72E082F192F2A2D7C
:102F70003B2D4C2D5D2D6E2D7F2D802F912F0E948E
:102F8000402ADC01CB0120E030E84BEB55E4BC01EA
:102F9000CD010E942C29DC01CB01BC01CD010E9496
:102FA0009929A22EB32EC42ED52EE62EF72E082F49
:102FB000192FD601C501BC01CD019BDE81E290E253
:102FC0000E94082FFFCF1F920F9200903F000F9298
:102FD00011242F933F934F935F936F937F938F931E
:102FE0009F93AF93BF93EF93FF93CF93DF9300D063
:102FF000CDB7DEB78FE390E0FC0180818A83BBDE32
:1030000089830AC08091B4219091B5210196809363
:10301000B4219093B52119828981882399F7CE0133
:103020000296B2DE0F900F90DF91CF91FF91EF915A
:10303000BF91AF919F918F917F916F915F914F91D0
:103040003F912F910F9000923F000F901F90189585
:103050001F920F9200903F000F9211242F933F93E5
:103060004F935F936F937F938F939F93AF93BF9390
:10307000EF93FF93CF93DF9300D0CDB7DEB78FE30D
:1030800090E0FC0180818A8376DE89830AC080918A
:10309000B6219091B72101968093B6219093B721E4
:1030A00019828981882399F7CE0102966DDE0F90EF
:1030B0000F90DF91CF91FF91EF91BF91AF919F91D1
:1030C0008F917F916F915F914F913F912F910F90D1
:1030D00000923F000F901F9018951F920F92009042
:1030E0003F000F9211242F933F934F935F936F9361
:1030F0007F938F939F93AF93BF93EF93FF93CF9360
:10310000DF9300D0CDB7DEB78FE390E0FC01808184
:103110008A8331DE89830BC00E94DD241092B421A2
:103120001092B5211092B6211092B721198289818F
:10313000882391F7CE01029627DE0F900F90DF9142
:10314000CF91FF91EF91BF91AF919F918F917F911F
:103150006F915F914F913F912F910F9000923F009F
:103160000F901F901895CF93DF931F92CDB7DEB7C6
:103170008FE390E0FC0180818983F89489810F902E
:10318000DF91CF910895CF93DF931F92CDB7DEB734
:1031900089838FE390E02981FC0120830F90DF91E8
:1031A000CF910895CF93DF9300D0CDB7DEB78A8358
:1031B000DADF898380E590E020E530E0F9013081B5
:1031C0002A81232BFC0120838981DDDF0F900F9062
:1031D000DF91CF910895CF93DF9300D0CDB7DEB7C5
:1031E0008A8380E590E0FC011282BDDF898380E55F
:1031F00090E020E530E0F90130812A81232BFC01A9
:1032000020838981C0DF0F900F90DF91CF910895C7
:10321000CF93DF9300D0CDB7DEB78A83A4DF898355
:1032200080E590E020E530E0F9012081322F2A810D
:1032300020952323FC0120838981A5DF0F900F9027
:10324000DF91CF910895CF93DF931F92CDB7DEB773
:1032500089838981883019F08981A4DF02C089813E
:10326000BADF0F90DF91CF910895CF93DF931F9234
:10327000CDB7DEB7898380E590E0FC01918189813B
:10328000982381E0992309F480E00F90DF91CF919A
:103290000895CF93DF931F92CDB7DEB789830000E7
:1032A0008981E3DF982F81E089278823C9F70F9070
:1032B000DF91CF910895CF93DF9300D000D0CDB7A9
:1032C000DEB780E790E089839A831C821B820DC061
:1032D00089819A819C012F5F3F4F29833A832FEF89
:1032E000FC0120838B818F5F8B838B81873080F300
:1032F00082E0A9DF82E0CDDF000061E080E490E0C1
:10330000F9D28C81882311F481E082DF2496CDBF2D
:10331000DEBFDF91CF910895CF93DF9300D01F924E
:10332000CDB7DEB78A836B831EDF89838A81882FBE
:1033300090E080599F4F2A81222F30E020593F4F43
:10334000F9012081322F2B8120952323FC0120833A
:10335000898119DF2396CDBFDEBFDF91CF9108951C
:10336000CF93DF9300D01F92CDB7DEB78A839B83C4
:10337000209170283091712880917428909175283F
:10338000AE014F5F5F4FBA01F90109958981082E9F
:10339000000C990B2396CDBFDEBFDF91CF9108952E
:1033A000CF93DF9300D01F92CDB7DEB789836A83B6
:1033B0007B8320917228309173288091742890919A
:1033C00075286981F901099599231CF48FEF9FEF06
:1033D00002C081E090E02396CDBFDEBFDF91CF91A8
:1033E00008951F920F9200903F000F9211242F9387
:1033F0003F934F935F936F937F938F939F93AF937D
:10340000BF93EF93FF93CF93DF93CDB7DEB7809158
:10341000BA219091BB21892BF9F080E893E0FC015F
:103420008781882F90E080719927892B59F020910E
:10343000BA213091BB2140E060E080E893E0F901DF
:1034400009950AC02091BA213091BB2140E860E083
:1034500080E893E0F9010995DF91CF91FF91EF9119
:10346000BF91AF919F918F917F916F915F914F919C
:103470003F912F910F9000923F000F901F90189551
:103480001F920F9200903F000F9211242F933F93B1
:103490004F935F936F937F938F939F93AF93BF935C
:1034A000EF93FF93CF93DF93CDB7DEB78091BA212F
:1034B0009091BB21892BF9F080E893E0FC01878192
:1034C000882F90E080729927892B59F02091BA219A
:1034D0003091BB2140E061E080E893E0F90109957B
:1034E0000AC02091BA213091BB2140E861E080E818
:1034F00093E0F9010995DF91CF91FF91EF91BF9191
:10350000AF919F918F917F916F915F914F913F917B
:103510002F910F9000923F000F901F9018951F92CF
:103520000F9200903F000F9211242F933F934F93DF
:103530005F936F937F938F939F93AF93BF93EF931B
:10354000FF93CF93DF93CDB7DEB78091BA219091EF
:10355000BB21892B79F02091BA213091BB2180E8E1
:1035600093E0FC018781807C482F60E080E893E055
:10357000F9010995DF91CF91FF91EF91BF91AF9143
:103580009F918F917F916F915F914F913F912F917B
:103590000F9000923F000F901F9018951F920F926E
:1035A00000903F000F9211242F933F934F935F930E
:1035B0006F937F938F939F93AF93BF93EF93FF93FB
:1035C000CF93DF9300D000D0CDB7DEB7209176281F
:1035D0003091772880E092E089839A8381E08B8321
:1035E0001C828B81882F90E083709927892B39F476
:1035F0008C818E5F8C838B81869586958B838B8166
:10360000882F90E081709927892B19F48C818F5F26
:103610008C8389819A81AC01405E5F4F8C81882FB9
:1036200090E0880F991F880F991F880F991F840FAA
:10363000951FFC0184819581AC0161E080E092E0FE
:10364000F90109952496CDBFDEBFDF91CF91FF919F
:10365000EF91BF91AF919F918F917F916F915F910A
:103660004F913F912F910F9000923F000F901F902C
:1036700018951F920F9200903F000F9211242F93E4
:103680003F934F935F936F937F938F939F93AF93EA
:10369000BF93EF93FF93CF93DF9300D000D0CDB7CC
:1036A000DEB7209176283091772880E092E08983F8
:1036B0009A8382E08B831C828B81882F90E08370B9
:1036C0009927892B39F48C818E5F8C838B81869529
:1036D00086958B838B81882F90E081709927892B29
:1036E00019F48C818F5F8C8389819A81AC01405E53
:1036F0005F4F8C81882F90E0880F991F880F991F4A
:10370000880F991F840F951FFC0184819581AC015E
:1037100062E080E092E0F90109952496CDBFDEBF1A
:10372000DF91CF91FF91EF91BF91AF919F918F91D9
:103730007F916F915F914F913F912F910F900092E8
:103740003F000F901F9018951F920F9200903F001E
:103750000F9211242F933F934F935F936F937F9317
:103760008F939F93AF93BF93EF93FF93CF93DF9389
:1037700000D000D0CDB7DEB72091762830917728E1
:1037800080E092E089839A8384E08B831C828B8122
:10379000882F90E083709927892B39F48C818E5F74
:1037A0008C838B81869586958B838B81882F90E087
:1037B00081709927892B19F48C818F5F8C83898183
:1037C0009A81AC01405E5F4F8C81882F90E0880F1A
:1037D000991F880F991F880F991F840F951FFC014F
:1037E00084819581AC0164E080E092E0F901099563
:1037F0002496CDBFDEBFDF91CF91FF91EF91BF91B6
:10380000AF919F918F917F916F915F914F913F9178
:103810002F910F9000923F000F901F9018951F92CC
:103820000F9200903F000F9211242F933F934F93DC
:103830005F936F937F938F939F93AF93BF93EF9318
:10384000FF93CF93DF9300D000D0CDB7DEB72091A8
:1038500076283091772880E092E089839A8388E007
:103860008B831C828B81882F90E083709927892B12
:1038700039F48C818E5F8C838B81869586958B83C2
:103880008B81882F90E081709927892B19F48C8186
:103890008F5F8C8389819A81AC01405E5F4F8C8100
:1038A000882F90E0880F991F880F991F880F991F04
:1038B000840F951FFC0184819581AC0168E080E054
:1038C00092E0F90109952496CDBFDEBFDF91CF913B
:1038D000FF91EF91BF91AF919F918F917F916F91E8
:1038E0005F914F913F912F910F9000923F000F9069
:1038F0001F9018951BBEFC0128ED24BF608308951E
:103900004091CA01E62FF72F8093CA01849140931A
:10391000CA0108951F920F9200903F000F92112448
:103920008F939F93CF93DF93CDB7DEB780917828A5
:103930009091792801968093782890937928DF9147
:10394000CF919F918F910F9000923F000F901F9009
:1039500018951F920F9200903F000F9211242F9301
:103960003F934F935F936F937F938F939F93AF9307
:10397000BF93EF93FF93CF93DF93CDB7DEB7289735
:10398000CDBFDEBF209178283091792880917A28A8
:1039900090917B282817390708F463C080E094E0F1
:1039A00021E0FC01228380917E2890917F28892B41
:1039B00009F457C08091782890917928CC01A0E033
:1039C000B0E0AC013327222780E094E0FC01808541
:1039D0009185CC01A0E0B0E0822B932BA42BB52BDA
:1039E00089839A83AB83BC8380917A2890917B28CA
:1039F000CC01A0E0B0E0AC013327222780917C28E5
:103A000090917D28CC01A0E0B0E0822B932BA42BD9
:103A1000B52B8D839E83AF83B8872D813E814F81E7
:103A2000588589819A81AB81BC81281739074A075B
:103A30005B0758F08D819E81AF81B8850196A11DED
:103A4000B11D89839A83AB83BC8320917E283091FA
:103A50007F2889819A81AB81BC81BC01CD01F901AC
:103A600009952896CDBFDEBFDF91CF91FF91EF91F1
:103A7000BF91AF919F918F917F916F915F914F9186
:103A80003F912F910F9000923F000F901F9018953B
:103A90001F920F9200903F000F9211242F933F939B
:103AA0004F935F936F937F938F939F93AF93BF9346
:103AB000EF93FF93CF93DF93CDB7DEB722D1DF91A2
:103AC000CF91FF91EF91BF91AF919F918F917F9196
:103AD0006F915F914F913F912F910F9000923F0016
:103AE0000F901F9018951F920F9200903F000F9219
:103AF00011242F933F934F935F936F937F938F93F3
:103B00009F93AF93BF93EF93FF93CF93DF93CDB783
:103B1000DEB7F7D0DF91CF91FF91EF91BF91AF91D9
:103B20009F918F917F916F915F914F913F912F91D5
:103B30000F9000923F000F901F901895CF93DF9346
:103B4000CDB7DEB72897CDBFDEBF8091BC21909165
:103B5000BD2189839A838091BE219091BF218B835F
:103B60009C832091C0213091C1218B819C81FC01DB
:103B70008481958128173907E4F48B819C81019613
:103B80008D839E838091C0219091C1219C012F5FE4
:103B90003F4F2093C0213093C1219C018D819E8194
:103BA000820F931FFC01208189819A81FC01278368
:103BB0003FC02091C2213091C3218B819C81FC01A7
:103BC000808591852817390760F58091C421882365
:103BD00059F089819A81FC018681282F2160898191
:103BE0009A81FC01268324C08B819C81FC01868103
:103BF00097818F8398878091C2219091C3219C01E6
:103C00002F5F3F4F2093C2213093C3212F813885EE
:103C1000820F931FFC01208189819A81FC012783F7
:103C200007C089819A8123E0FC0123831092C62179
:103C30002896CDBFDEBFDF91CF910895CF93DF935C
:103C4000CDB7DEB72697CDBFDEBF8091BC21909166
:103C5000BD2189839A838091BE219091BF218B835E
:103C60009C832091C2213091C3218B819C81FC01D6
:103C70008085918528173907B0F58B819C81FC01DF
:103C8000868197818D839E838091C2219091C321EB
:103C90009C012F5F3F4F2093C2213093C3212D8180
:103CA0003E81820F931F29813A81F9012781FC010E
:103CB00020832091C2213091C3218B819C81FC0102
:103CC000808591852817390730F489819A8122E00F
:103CD000FC01238310C089819A8127E0FC012383A2
:103CE0001092C62108C089819A8123E0FC012383B8
:103CF00089EF8093C6212696CDBFDEBFDF91CF919D
:103D00000895CF93DF931F92CDB7DEB78091BC218A
:103D10009091BD21FC01848189838981882F90E065
:103D200088709927892B99F08091BC219091BD21B1
:103D300029812860FC0124838091BC219091BD21C0
:103D400023E0FC01238386EF8093C6212AC089816A
:103D5000882F90E084709927892B39F48981882FE6
:103D600090E080719927892B59F08091BC21909126
:103D7000BD2123E0FC0123838FEF8093C62111C076
:103D80008981882F90E080749927892B11F0D6DEE5
:103D900008C08981882314F451DF03C08BEF80931E
:103DA000C6210F90DF91CF910895CF93DF93CDB7C8
:103DB000DEB72597CDBFDEBF8A839B836C837D836F
:103DC00088EB89838C819D81FC0184819581A6810A
:103DD000B781282F8A819B81FC0125838A819B8161
:103DE0002981FC0121838A819B8121E0FC012483BC
:103DF0001092C5211092C62180EA90E020EA30E0BE
:103E0000F90122812260FC012283789480E02596CA
:103E1000CDBFDEBFDF91CF910895CF93DF9300D068
:103E2000CDB7DEB789839A8389819A81FC01848129
:103E3000282F206189819A81FC0124830F900F90A3
:103E4000DF91CF910895CF93DF93CDB7DEB725975C
:103E5000CDBFDEBF89839A836B834C832D839B8187
:103E60008C81892B982F8D81882311F088E001C0E7
:103E700080E0892B282F89819A81FC012583259652
:103E8000CDBFDEBFDF91CF910895CF93DF9300D0F8
:103E9000CDB7DEB789839A8389819A81FC018481B9
:103EA000282F286089819A81FC0124830F900F902C
:103EB000DF91CF910895CF93DF9300D01F92CDB7BC
:103EC000DEB789839A836B8389819A81FC0185811E
:103ED000982F9F738B81892B282F89819A81FC01D0
:103EE00025832396CDBFDEBFDF91CF910895CF9379
:103EF000DF9300D0CDB7DEB789839A8389819A8119
:103F0000FC018181882F90E08072992721E0892B24
:103F100009F420E0822F0F900F90DF91CF91089548
:103F2000CF93DF9300D0CDB7DEB789839A838981A1
:103F30009A81FC018181882F90E08078992721E087
:103F4000892B09F420E0822F0F900F90DF91CF9101
:103F50000895CF93DF93CDB7DEB780E098E4A8EE65
:103F6000B1E0BC01CD01DF91CF910895CF93DF93F4
:103F70001F92CDB7DEB71982ECDFDC01CB012981BE
:103F8000222F30E004C0B695A795979587952A957E
:103F9000D2F7BC01CD010F90DF91CF910895CF935F
:103FA000DF93CDB7DEB7E2DFDC01CB01BC01CD0191
:103FB000DF91CF910895CF93DF93CDB7DEB7EFDFD9
:103FC000DC01CB01BC01CD01DF91CF910895CF93EE
:103FD000DF9300D0CDB7DEB789839A8389819A8138
:103FE000892B09F4D7C089819A81803C910521F4FD
:103FF00060E180E091D9CEC089819A818115944099
:1040000021F464E080E088D9C5C089819A81803834
:10401000914021F462E080E07FD9BCC089819A811F
:104020008115914021F461E080E076D9B3C08981A7
:104030009A818038934021F461E081E06DD9AAC073
:1040400089819A818115924021F462E081E064D9EE
:10405000A1C089819A818032934021F464E082E09A
:104060005BD998C089819A818115984021F461E0DB
:1040700083E052D98FC089819A818115994021F4BA
:1040800061E084E049D986C089819A8181159A408E
:1040900021F461E085E040D97DC089819A81803436
:1040A000984021F462E083E037D974C089819A8115
:1040B0008034994021F462E084E02ED96BC089817C
:1040C0009A818039984021F464E083E025D962C068
:1040D00089819A818039994021F464E084E01CD977
:1040E00059C089819A8180399A4021F464E085E041
:1040F00013D950C089819A81803C984021F468E0AE
:1041000083E00AD947C089819A81803C994021F493
:1041100068E084E001D93EC089819A81803A984064
:1041200021F460E183E0F8D835C089819A81803A32
:10413000994021F460E184E0EFD82CC089819A8114
:10414000803A9A4021F460E185E0E6D823C0898175
:104150009A81803B984021F460E283E0DDD81AC068
:1041600089819A81803B994021F460E284E0D4D82F
:1041700011C089819A818038944021F460E483E001
:10418000CBD808C089819A81803A944019F460E4C0
:1041900085E0C2D80F900F90DF91CF9108950F93D3
:1041A0001F93CF93DF93CDB7DEB72597CDBFDEBF8B
:1041B0008A839B836C837D838A819B8108DF8A81CC
:1041C0009B8160E078DE8C819D81FC0126818C8161
:1041D0009D81FC0145818C819D81FC0134818A8116
:1041E0009B81632F30DEE7DE9B01AC018C819D81DA
:1041F000FC0180819181A281B381EA81FB818901E7
:104200009A01AC01BD01CF0148D089838A819B818D
:104210003CDE8A819B8101DE89812596CDBFDEBF90
:10422000DF91CF911F910F910895CF93DF9300D02D
:104230001F92CDB7DEB789839A836B830000898193
:104240009A8155DE982F81E089278823C1F78981DB
:104250009A812B81FC01208380E090E02396CDBFE2
:10426000DEBFDF91CF910895CF93DF9300D0CDB71C
:10427000DEB789839A83000089819A8151DE982F65
:1042800081E089278823C1F789819A81FC01808197
:104290000F900F90DF91CF910895EF92FF920F93BF
:1042A0001F93CF93DF93CDB7DEB7AF97CDBFDEBF00
:1042B0008E8B9F8B488F598F6A8F7B8F0C8F1D8FB2
:1042C0002E8F3F8F8C8D9D8DAE8DBF8D689412F893
:1042D000B695A795979587951694D1F78E879F8762
:1042E000A88BB98B8C8D9D8DAE8DBF8D072E76E101
:1042F000B695A795979587957A95D1F7702D8A876A
:104300009B87AC87BD878E899F89FC018481882F1C
:1043100090E084709927892BC1F48E859F85A889A8
:10432000B989B695A795979587958E879F87A88B0E
:10433000B98B8A859B85AC85BD85B695A7959795E4
:1043400087958A879B87AC87BD87288D398D4A8D55
:104350005B8D8E859F85A889B98982179307A407ED
:10436000B50768F0288D398D4A8D5B8D8A859B85D0
:10437000AC85BD85281739074A075B0710F480E034
:104380003FC18E899F89FC018481882F90E08470D1
:104390009927892B61F4888D998DAA8DBB8D880F03
:1043A000991FAA1FBB1F888F998FAA8FBB8F8FEF72
:1043B00090E0A0E0B0E08E839F83A887B9878C8DC2
:1043C0009D8DAE8DBF8D288D398D4A8D5B8DBC0145
:1043D000CD010E94A72CDA01C9018A8B9B8BAC8B83
:1043E000BD8B89EF898329C02A893B894C895D89E6
:1043F0008E819F81A885B985281739074A075B07F1
:1044000008F41EC08E819F81A885B985880F991FE9
:10441000AA1FBB1F8E839F83A887B98789818D3F81
:104420004CF48E819F81A885B98581608E839F839E
:10443000A887B98789818F5F898389818730A4F2B2
:10444000898188230CF08AC0888D998DAA8DBB8DB7
:10445000880F991FAA1FBB1F880F991FAA1FBB1F78
:10446000880F991FAA1FBB1F9C01AD018C8D9D8DCC
:10447000AE8DBF8D821B930BA40BB50B8C8F9D8FC4
:10448000AE8FBF8F89818E3F94F58981082E000CF5
:10449000990B2DEF3FEF281B390B8C8D9D8DAE8D29
:1044A000BF8D7C018D0104C0EE0CFF1C001F111F8D
:1044B0002A95D2F7A8019701888D998DAA8DBB8D79
:1044C000B695A79597958795820F931FA41FB51F43
:1044D000288D398D4A8D5B8DBC01CD010E94A72CA2
:1044E000DA01C9018A839B83AC83BD8370C0898153
:1044F000082E000C990B9C012D5F3F4F888D998DE4
:10450000AA8DBB8D04C0880F991FAA1FBB1F2A95B7
:10451000D2F7888F998FAA8FBB8F888D998DAA8D9E
:10452000BB8D9C01AD0156954795379527958C8D90
:104530009D8DAE8DBF8D820F931FA41FB51F288D3B
:10454000398D4A8D5B8DBC01CD010E94A72CDA010B
:10455000C9018A839B83AC83BD8339C08981082EBE
:10456000000C990B9C012D5F3F4F888D998DAA8D72
:10457000BB8D04C0880F991FAA1FBB1F2A95D2F7B5
:10458000888F998FAA8FBB8F888D998DAA8DBB8DAF
:104590009C01AD0156954795379527958C8D9D8D3E
:1045A000AE8DBF8D820F931FA41FB51F288D398D2F
:1045B0004A8D5B8DBC01CD010E94A72CDA01C90197
:1045C0000197A109B1098A839B83AC83BD838A814A
:1045D0009B81AC81BD81892F9A2FAB2FBB27982F50
:1045E0009F7089818295807F292F282B8E899F89B2
:1045F000FC0127832A818E899F89FC01268381E023
:10460000AF96CDBFDEBFDF91CF911F910F91FF908D
:10461000EF900895CF93DF9300D0CDB7DEB78983B5
:104620009A8389819A81892B09F4EFC089819A81C3
:10463000803C910529F460E180E00E948C19E5C07E
:1046400089819A818115944029F464E080E00E9478
:104650008C19DBC089819A818038914029F462E00D
:1046600080E00E948C19D1C089819A818115914086
:1046700029F461E080E00E948C19C7C089819A8189
:104680008038934029F461E081E00E948C19BDC01C
:1046900089819A818115924029F462E081E00E942B
:1046A0008C19B3C089819A818032934029F464E0E7
:1046B00082E00E948C19A9C089819A818115984055
:1046C00029F461E083E00E948C199FC089819A815E
:1046D0008115994029F461E084E00E948C1995C00D
:1046E00089819A8181159A4029F461E085E00E94D0
:1046F0008C198BC089819A818034984029F462E0BA
:1047000083E00E948C1981C089819A81803499400C
:1047100029F462E084E00E948C1977C089819A8133
:104720008039984029F464E083E00E948C196DC0C0
:1047300089819A818039994029F464E084E00E945B
:104740008C1963C089819A8180399A4029F464E088
:1047500085E00E948C1959C089819A81803C9840DB
:1047600029F468E083E00E948C194FC089819A8106
:10477000803C994029F468E084E00E948C1945C08F
:1047800089819A81803A984029F460E183E00E940F
:104790008C193BC089819A81803A994029F460E163
:1047A00084E00E948C1931C089819A81803A9A40B4
:1047B00029F460E185E00E948C1927C089819A81E3
:1047C000803B984029F460E283E00E948C191DC070
:1047D00089819A81803B994029F460E284E00E94BB
:1047E0008C1913C089819A818038944029F460E43F
:1047F00083E00E948C1909C089819A81803A944093
:1048000021F460E485E00E948C190F900F90DF91F5
:10481000CF910895CF93DF93CDB7DEB72B97CDBF60
:10482000DEBF888799876A877B878A859B85FC019D
:1048300084818D838A859B85FC0185818E838A8511
:104840009B85FC0186818F838A859B85FC01808105
:104850009181A281B38189839A83AB83BC8388854C
:104860009985803A984021F460E183E00E948C1998
:1048700088859985803B984021F460E283E00E941E
:104880008C1988859985803A994021F460E184E00B
:104890000E948C1988859985803B994021F460E2BB
:1048A00084E00E948C1988859985803A9A4021F489
:1048B00060E185E00E948C19888599859E012F5FB3
:1048C0003F4FB9016CDC882311F081E001C080E02A
:1048D0002B96CDBFDEBFDF91CF910895CF93DF93AD
:1048E00000D01F92CDB7DEB789839A836B8389810D
:1048F0009A816B819ADC2396CDBFDEBFDF91CF9189
:104900000895CF93DF9300D000D0CDB7DEB7898371
:104910009A836B837C8389819A81A6DC282F8B8183
:104920009C81FC0120832496CDBFDEBFDF91CF9117
:104930000895CF93DF9300D000D0CDB7DEB7898341
:104940009A836B837C8389819A8180937428909366
:1049500075288EE694E2809372289093732881E8FC
:1049600094E280937028909371282B813C818981F7
:104970009A81B9014FDF60EB79E180ED99E10E9406
:10498000AB2E2496CDBFDEBFDF91CF910895CF939C
:10499000DF9300D0CDB7DEB789839A8389819A816E
:1049A000FC018181282F286089819A81FC01218363
:1049B0000F900F90DF91CF9108957F928F929F92E9
:1049C000AF92BF92CF92DF92EF92FF920F931F931D
:1049D000CF93DF93CDB7DEB7809168289091692897
:1049E000019680936828909369280E9433118090E3
:1049F000B6219090B721A090B421B090B521C0907D
:104A00003428D0903528EBD17B018C012091FF22F6
:104A100030910023409101235091022380912B2259
:104A200090912C22A0912D22B0912E22E09163280A
:104A3000F09164286091682870916928792C7F92A0
:104A4000982C9F929B2C9F92BA2CBF92BD2CBF9208
:104A5000DC2CDF920F2EF7E9CF2EF2E2DF2EF02DC5
:104A6000DF920F2EF7E9CF2EF2E2DF2EF02DDC2CB5
:104A7000DF920F2EF3E3CF2EF2E2DF2EF02DDF9246
:104A80000F2EF3E3CF2EF2E2DF2EF02DDC2CDF929F
:104A90000F2EFCE1CF2EF3E2DF2EF02DDF920F2E52
:104AA000FCE1CF2EF3E2DF2EF02DDC2CDF920F2E77
:104AB000F0E8CF2EF3E2DF2EF02DDF920F2EF0E89C
:104AC000CF2EF3E2DF2EF02DDC2CDF92D12EDF9201
:104AD000D02EDF92DF2CDF921E2D1F93152F1F93F8
:104AE000142F1F93132F1F932F932B2F2F932A2FA6
:104AF0002F93292F2F938F938F2F8F938E2F8F93F9
:104B0000872F8F93862F8F9382E491E2892F8F9343
:104B100082E491E28F930E94F52E8DB79EB7809626
:104B2000CDBFDEBFDF91CF911F910F91FF90EF902E
:104B3000DF90CF90BF90AF909F908F907F9008951F
:104B4000CF93DF93CDB7DEB780EA99E063DD66E00F
:104B500070E280EA99E0EDDEDF91CF910895CF9386
:104B6000DF93CDB7DEB72997CDBFDEBF0E945B19BB
:104B700080E590E020E530E0F9012681297FFC0105
:104B8000268380E590E020E530E0F9012681FC01F4
:104B9000268380E590E020E530E0F9012081266061
:104BA000FC012083000080E590E0FC018181882FDA
:104BB00090E082709927892BB1F3000080E590E0A6
:104BC000FC018181882F90E084709927892BB1F3B3
:104BD00080E690E020E630E0F90120812160FC01D0
:104BE000208384E390E028EDFC01208380E490E0C2
:104BF000FC01118280E092E00DDD80EA99E00ADD9F
:104C000080E098E007DD64E083E00E948C1929E0F1
:104C1000CE010196FC01322F11923A95E9F780E816
:104C20009AE1A6E0B0E089839A83AB83BC8383E2F8
:104C300090E0A0E0B0E08D839E83AF83B88780EAE8
:104C400094E0E8DCCE010196BC0180EA94E0ADD8A6
:104C500080EA94E09CDE2996CDBFDEBFDF91CF9144
:104C60000895CF93DF93CDB7DEB7789480E096E0D8
:104C70002AE1FC01228B80E096E02AE1FC01238BF3
:104C800080E096E024E0FC01228780E096E028E0C6
:104C9000FC01238780E096E025E0FC01218780EA83
:104CA00090E025E0FC01228380E098E027E0FC0111
:104CB000208380E098E021E13AE7FC0126A337A3B6
:104CC00080E098E021E0FC012683DF91CF910895F8
:104CD000CF93DF931F92CDB7DEB789838981882F69
:104CE00090E0BC0182E00E94801C0F90DF91CF9188
:104CF0000895CF93DF9300D01F92CDB7DEB78B839B
:104D00008B81882F90E0009719F00297C1F02EC098
:104D100081E2DEDF882F90E089839A8389819A81FE
:104D2000982F882789839A8380E2D2DF882F90E0AA
:104D300029813A81822B932B89839A8319C08FE230
:104D4000C7DF882F90E089839A8389819A81982F81
:104D5000882789839A838EE2BBDF882F90E02981A0
:104D60003A81822B932B89839A8302C019821A82FB
:104D700089819A812396CDBFDEBFDF91CF910895BF
:104D80000F931F93CF93DF93CDB7DEB780E092E010
:104D900021E0FC01208380E092E0FC01118280E0B0
:104DA00092E020E1FC01228380E092E025E0FC011A
:104DB000248300E012E080E09CDFF801848795877F
:104DC00080E092E021E0FC0120A380E092E028E076
:104DD000FC0121A3DF91CF911F910F9108958F9234
:104DE0009F92AF92BF92CF92DF92EF92FF92CF93BA
:104DF000DF93CDB7DEB76C97CDBFDEBF80E092E02A
:104E000020E032E0F90120A12068FC0120A300008D
:104E100080E092E0FC0183A18823D1F380E092E05E
:104E2000FC0184A195A189839A838CEB94E7A3E983
:104E3000BAE38B839C83AD83BE838DEC99E1A6E7B7
:104E4000B9E38F839887A987BA8785E194EFA7EBA9
:104E5000B3E38B879C87AD87BE8780E090E5A3E4B2
:104E6000B7E48F87988BA98BBA8B89819A81CC0103
:104E7000A0E0B0E0BC01CD01C6D2DC01CB012FE641
:104E800032E143E05AE3BC01CD01DED3DC01CB01CA
:104E900028E539E344EB5DE3BC01CD0178D1DC01C9
:104EA000CB0120E030E04AE754E4BC01CD01CCD393
:104EB000DC01CB018B8B9C8BAD8BBE8B20E030E07B
:104EC0004AE754E46B897C898D899E89C5D1DC01D0
:104ED000CB012F85388949895A89BC01CD01B4D3CA
:104EE000DC01CB01BC01CD0159D2DC01CB01092E83
:104EF000000CAA0BBB0BBC01CD0187D26B017C015E
:104F000020E030E04AE754E46B897C898D899E89F2
:104F1000A3D1DC01CB019C01AD0163E373E383E525
:104F200090E435D1DC01CB019C01AD01C701B60194
:104F300093D1DC01CB01BC01CD0130D2DC01CB012E
:104F40008F8B988F8F89988D092E000CAA0BBB0B25
:104F5000BC01CD015AD2DC01CB01BC01CD0134D35F
:104F6000DC01CB012F81388549855A85BC01CD01F3
:104F70006BD3DC01CB012B813C814D815E81BC0177
:104F8000CD0106D1DC01CB016C017D018F89988DAB
:104F9000092E000CAA0BBB0BBC01CD0136D2DC01E3
:104FA000CB01BC01CD0110D3DC01CB012B853C85AD
:104FB0004D855E85BC01CD0147D3DC01CB014C01A1
:104FC0005D018F89988D092E000CAA0BBB0BBC01CB
:104FD000CD011BD2DC01CB01BC01CD01F5D2DC013E
:104FE000CB019C01AD01C501B4012ED3DC01CB0185
:104FF0004C015D018F89988D092E000CAA0BBB0B0B
:10500000BC01CD0102D2DC01CB01BC01CD01DCD25F
:10501000DC01CB019C01AD01C501B40115D3DC015C
:10502000CB019C01AD01C701B601B2D0DC01CB01BF
:105030009C01AD0160E070E080E89FE30DD1DC01F0
:10504000CB0123E333E948E853E4BC01CD019FD011
:10505000DC01CB0120E030E04AE754E4BC01CD01A3
:10506000F3D2DC01CB01BC01CD0198D1DC01CB0135
:10507000898F9A8FAB8FBC8F898D9A8DAB8DBC8DAC
:10508000BC01CD016C96CDBFDEBFDF91CF91FF900B
:10509000EF90DF90CF90BF90AF909F908F9008954A
:1050A000CF93DF93CDB7DEB72697CDBFDEBF8A8320
:1050B0009B836C834D835E83198220C08C81882FF3
:1050C00090E02981222F30E002C0959587952A959E
:1050D000E2F781709927892B71F08981882F90E000
:1050E00040962A813B81820F931F2D813E81232F81
:1050F0003327FC01208389818F5F898389818830F0
:10510000E8F28D819E8181709927892BD1F08D8164
:105110009E8182709927892B39F08A819B8105961F
:105120002C81FC01208306C08A819B8106962C81FC
:10513000FC0120838A819B8101962C81FC012083C4
:1051400006C08A819B8102962C81FC0120832696D1
:10515000CDBFDEBFDF91CF910895CF93DF93CDB761
:10516000DEB780E096E0FC01118280E496E029EB56
:10517000FC01218380E696E028E0FC01218380E8A1
:1051800096E02AE0FC012183DF91CF9108955058E9
:10519000BB27AA270ED0D9C1CAD130F0CFD120F079
:1051A00031F49F3F11F41EF4AFC10EF4E095E7FB1C
:1051B000A5C1E92FDBD180F3BA1762077307840713
:1051C000950718F071F49EF5F3C10EF4E0950B2EDF
:1051D000BA2FA02D0B01B90190010C01CA01A00149
:1051E0001124FF27591B99F0593F50F4503E68F1A4
:1051F0001A16F040A22F232F342F4427585FF3CFE5
:10520000469537952795A795F0405395C9F77EF4B5
:105210001F16BA0B620B730B840BBAF09150A1F0FE
:10522000FF0FBB1F661F771F881FC2F70EC0BA0F84
:10523000621F731F841F48F4879577956795B7950C
:10524000F7959E3F08F0B3CF9395880F08F0992704
:10525000EE0F9795879508950CD077C16FD140F0E8
:1052600066D130F021F45F3F19F048C15111A1C15E
:105270004BC17CD198F39923C9F35523B1F3951B06
:10528000550BBB27AA2762177307840738F09F5F67
:105290005F4F220F331F441FAA1FA9F333D00E2ED6
:1052A0003AF0E0E830D091505040E695001CCAF743
:1052B00029D0FE2F27D0660F771F881FBB1F261708
:1052C00037074807AB07B0E809F0BB0B802DBF01DB
:1052D000FF2793585F4F2AF09E3F510568F00EC19B
:1052E00068C15F3FECF3983EDCF386957795679550
:1052F000B795F7959F5FC9F7880F911D969587958C
:1053000097F90895E1E0660F771F881FBB1F6217AA
:1053100073078407BA0720F0621B730B840BBA0B68
:10532000EE1F88F7E0950895BEE304D008F490E8F6
:105330000895BFE322273327A90120D158F19F57B1
:1053400040F1B91738F1BFE3B91B9927B8503AF4C7
:10535000660F771F881F991FB395D2F316C0B850F8
:105360004AF0232F342F452F562F672F782F882769
:10537000B850BAF7B85F49F0869577956795579515
:10538000479537952795BA95B9F70EF4C0D088940C
:105390000895889460E070E0CB01089504D068948B
:1053A000B11107C10895EAD088F09F5790F0B92F46
:1053B0009927B751A0F0D1F0660F771F881F991F6A
:1053C0001AF0BA95C9F712C0B13081F0F1D0B1E04E
:1053D0000895EEC0672F782F8827B85F39F0B93F5E
:1053E000CCF3869577956795B395D9F73EF490956C
:1053F0008095709561957F4F8F4F9F4F089597FBD4
:105400000EF485D03EC0E89409C097FB3EF4909519
:105410008095709561957F4F8F4F9F4F9923A9F08D
:10542000F92F96E9BB279395F6958795779567951C
:10543000B795F111F8CFFAF4BB0F11F460FF1BC060
:105440006F5F7F4F8F4F9F4F16C0882311F096E9F3
:1054500011C0772321F09EE8872F762F05C06623A1
:1054600071F096E8862F70E060E02AF09A95660F5A
:10547000771F881FDAF7880F9695879597F9089513
:10548000E894F92F96EBFF2381F012161306140609
:10549000440B9395F695879577956795579540407A
:1054A000FF23B9F71BC099270895882351F498501A
:1054B000D2F7872B762F652F542F432F322F20E0E2
:1054C000B1F3121613061406440B88233AF09A958A
:1054D000440F551F661F771F881FCAF755234AF4CC
:1054E000440F551F11F460FF04C06F5F7F4F8F4F53
:1054F0009F4F880F9695879597F9089597F99F671D
:1055000080E870E060E008959FEF80EC089590954A
:1055100080957095609550954095309521953F4FB9
:105520004F4F5F4F6F4F7F4F8F4F9F4F0895002416
:105530000A941616170618060906089500240A94F8
:1055400012161306140605060895092E0394000C7E
:1055500011F4882352F0BB0F40F4BF2B11F460FF0D
:1055600004C06F5F7F4F8F4F9F4F089557FD905836
:10557000440F551F59F05F3F71F04795880F97FB17
:10558000991F61F09F3F79F08795089512161306D1
:105590001406551FF2CF4695F1DF08C01616170600
:1055A0001806991FF1CF8695710561050894089535
:1055B000E894BB2766277727CB0197F908950EF06B
:1055C00023C1A2CF68949ACFD9DFC8F39923D1F32E
:1055D000C6F3DF93CF931F930F93FF92C92FDD275D
:1055E00088232AF02197660F771F881FDAF720E0BB
:1055F00030E040E85FEB9FE3883920F0803E30F0F8
:1056000021968F77C5DDECEFF1E003C0C1DDE9E263
:10561000F2E008D18B01BE01EC01FB2E6F5771093E
:105620007595771F880B990BF0DE28E132E741E38F
:105630005FE316D0AF2D9801AE01FF900F911F913F
:10564000CF91DF91B6DD81CF0BD07FCF70DF28F017
:1056500075DF18F0952309F051CF56CF1124A9CF4B
:1056600085DFA0F3959FD1F3950F50E0551F629F02
:10567000F001729FBB27F00DB11D639FAA27F00DAB
:10568000B11DAA1F649F6627B00DA11D661F829FD2
:105690002227B00DA11D621F739FB00DA11D621FB7
:1056A000839FA00D611D221F749F3327A00D611DD4
:1056B000231F849F600D211D822F762F6A2F1124B6
:1056C0009F5750408AF0E1F088234AF0EE0FFF1F09
:1056D000BB1F661F771F881F91505040A9F79E3F40
:1056E000510570F00BCF65CF5F3FECF3983EDCF3D4
:1056F000869577956795B795F795E7959F5FC1F77D
:10570000FE2B880F911D9695879597F90895FA01BC
:10571000EE0FFF1F30962105310599F161157105D6
:1057200061F48038BFE39B0749F1689490388105A4
:1057300061F08038BFEF9B0741F0992342F5FF3FAE
:10574000E1053105210511F1E8940894E795D901A7
:10575000AA2329F4AB2FBE2FF85FD0F310C0FF5F50
:1057600070F4A695E0F7F73950F019F0FF3A38F4E5
:105770009F779F930CD00F9007FC905808953EF0B0
:10578000C3CE60E070E080E89FE308954FE79F7725
:105790005F934F933F932F9317DF2F913F914F913B
:1057A0005F9152DF05C019F40EF0A8CE01CFACCE48
:1057B000E5DEC8F39638C0F707F80F92E8942BE3BC
:1057C0003AEA48EB5FE74EDF0F920F920F924DB728
:1057D0005EB70F9289D0E6E5F2E024D04F915F9159
:1057E000EF91FF91E595EE1FFF1F49F0FE57E0682E
:1057F0004427EE0F441FFA95E1F74195550B40D031
:105800000F9007FE34C008959F3F31F0915020F46F
:10581000879577956795B795880F911D969587958C
:1058200097F90895DF93CF931F930F93FF92EF9211
:10583000DF927B018C01689405C0DA2EEF0110DF46
:10584000FE01E894A5912591359145915591AEF3CE
:10585000EF01AFDCFE019701A801DA9479F7DF9040
:10586000EF90FF900F911F91CF91DF9108959B01D1
:10587000AC0160E070E080E89FE3EECC3FCEC4CFA7
:105880007DDEE8F39923D9F3940F511DBBF39150BA
:10589000504094F059F0882332F0660F771F881F2C
:1058A00091505040C1F79E3F510544F7880F911D1C
:1058B0009695879597F908955F3FACF0983E9CF0D8
:1058C000BB27869577956795B79508F4B160939552
:1058D000C1F7BB0F58F711F460FFE8CF6F5F7F4F40
:1058E0008F4F9F4FE3CF65CEFA01DC01AA0FBB1F9C
:1058F0009B01AC01BF5728F4222733274427507857
:105900001FC0B75188F4AB2F0024469537952795D3
:10591000011CA395D2F3002069F0220F331F441F0E
:10592000B395DAF30DD033CC61307105A0E88A0766
:10593000B94630F49B01AC01662777278827907819
:10594000309621F020833183428353830895A1E26E
:105950001A2EAA1BBB1BFD010DC0AA1FBB1FEE1FE9
:10596000FF1FA217B307E407F50720F0A21BB30B34
:10597000E40BF50B661F771F881F991F1A9469F7B0
:1059800060957095809590959B01AC01BD01CF010C
:105990000895DF93CF931F930F939A9DF02D219F2E
:1059A000F00D8B9DF00D8A9DE02DF10D039FF00D04
:1059B000029FE00DF11D4E9DE00DF11D5E9DF00D6D
:1059C0004F9DF00D7F936F93BF92AF925F934F9374
:1059D000D50185D08B01AC01D70181D0EB01E80F57
:1059E000F91FD6011FD02F913F91D60178D0C60F55
:1059F000D71FE81FF91FAF91BF9114D02F913F918E
:105A00006ED0C60FD71FE81FF91FD60168D0E60F6A
:105A1000F71F9801BE01CF0111240F911F91CF9163
:105A2000DF9108955CD0460F571FC81FD91F08F497
:105A3000319608950F93083090F0982F872F762F86
:105A4000652F542F432F322F22270850F4CF220FD7
:105A5000331F441F551F661F771F881F991F0A9504
:105A6000B2F70F91089597FB10F8169400080F9362
:105A7000083098F00850232F342F452F562F672FCA
:105A8000782F892F902DF4CF05949795879577954A
:105A9000679557954795379527950A95AAF70F91DA
:105AA00008952A0D3B1D4C1D5D1D6E1D7F1D801F21
:105AB000911F08952A193B094C095D096E097F0958
:105AC000800B910B08950024A7FD00942A17300540
:105AD0004005500560057005800590050895A29F5A
