:1000000026C100004AC1000048C1000046C10000EE
:1000100044C1000042C1000040C100003EC10000D8
:100020003CC100003AC1000038C1000036C10000E8
:1000300034C1000089C3000030C100002EC100009F
:100040002CC100002AC1000028C1000026C1000008
:1000500024C1000022C1000020C100001EC1000018
:100060001CC10000DEC4000018C1000016C1000061
:1000700014C1000012C1000010C100000EC1000038
:100080000CC100000AC1000008C1000006C1000048
:10009000FAC100003EC2000082C200000C94BA0AFD
:1000A0000C94F70A0C94340B0C94710BF6C00000FE
:1000B000F4C00000F2C00000ABC30000EEC00000BE
:1000C000ECC00000EAC00000E8C00000E6C000008C
:1000D000E4C000000C941110E0C00000DEC000007D
:1000E000DCC00000DAC00000D8C00000D6C00000AC
:1000F000D4C00000D2C00000D0C00000CEC00000BC
:100100000C9483100C94C510C8C00000C6C0000039
:10011000F0C0000034C1000078C100000C94C60992
:100120000C94030A0C94400A0C947D0AB6C000009B
:100130003DC30000B2C00000B0C00000AEC000006F
:10014000ACC00000AAC00000A8C00000A6C000000B
:10015000A4C00000A2C00000A0C000009EC000001B
:100160009CC000009AC0000098C0000096C000002B
:1001700094C0000092C0000090C000008EC000003B
:100180008CC000008AC0000088C0000086C000004B
:1001900084C0000082C0000080C000007EC000005B
:1001A0007CC000007AC0000078C0000063C300007B
:1001B00074C0000072C0000070C000006EC000007B
:1001C0006CC000006AC0000068C0000066C000008B
:1001D00064C0000062C0000060C000005EC000009B
:1001E0005CC000005AC0000058C0000056C00000AB
:1001F00054C0000008000000BE922449123EABAA81
:10020000AA2ABECDCCCC4C3E00000080BEABAAAA30
:10021000AA3E00000000BF000000803F0000000078
:1002200000084178D3BB4387D1133D190E3CC3BDB1
:100230004282AD2B3E68EC8276BED98FE1A93E4C5E
:1002400080EFFFBE01C4FF7F3F00000000001124CB
:100250001FBECFEFCDBFDFE3DEBF00E00CBF18BE97
:1002600019BE1ABE1BBE10E2A0E0B0E2E0E4F2E369
:1002700000E00BBF02C007900D92AC3DB107D9F76B
:100280001BBE21E2ACEDB0E201C01D92A431B20769
:10029000E1F70E94C90F0C941E19B2CECF93DF93E1
:1002A0001F92CDB7DEB78091F8209091F920E091B0
:1002B000F420F091F520BE016F5F7F4F1995898181
:1002C000082E000C990B0F90DF91CF910895682FA5
:1002D0008091F8209091F920E091F620F091F7209C
:1002E000199599231CF081E090E008958FEF9FEF1E
:1002F00008951F920F920FB60F92112408B60F9215
:1003000018BE09B60F9219BE0BB60F921BBE2F93E3
:100310003F934F935F936F937F938F939F93AF938D
:10032000BF93EF93FF93E091DE20F091DF203097B1
:1003300079F08091870384FF06C040E060E080E8A8
:1003400093E0199505C040E860E080E893E01995D6
:10035000FF91EF91BF91AF919F918F917F916F919D
:100360005F914F913F912F910F900BBE0F9009BE5F
:100370000F9008BE0F900FBE0F901F9018951F9200
:100380000F920FB60F92112408B60F9218BE09B63D
:100390000F9219BE0BB60F921BBE2F933F934F9334
:1003A0005F936F937F938F939F93AF93BF93EF93DD
:1003B000FF93E091DE20F091DF20309779F080917B
:1003C000870385FF06C040E061E080E893E019956F
:1003D00005C040E861E080E893E01995FF91EF9156
:1003E000BF91AF919F918F917F916F915F914F914D
:1003F0003F912F910F900BBE0F9009BE0F9008BE3A
:100400000F900FBE0F901F9018951F920F920FB66E
:100410000F92112408B60F9218BE09B60F9219BE9A
:100420000BB60F921BBE2F933F934F935F936F9327
:100430007F938F939F93AF93BF93EF93FF93E0913D
:10044000DE20F091DF20309739F040918703407C27
:1004500060E080E893E01995FF91EF91BF91AF9133
:100460009F918F917F916F915F914F913F912F91CC
:100470000F900BBE0F9009BE0F9008BE0F900FBEDD
:100480000F901F9018951F920F920FB60F92112484
:1004900008B60F9218BE09B60F9219BE0BB60F928E
:1004A0001BBE2F933F934F935F936F937F938F93D5
:1004B0009F93AF93BF93EF93FF93E091DC20F09174
:1004C000DD20309779F08091970384FF06C040E0EB
:1004D00060E080E993E0199505C040E860E080E9BC
:1004E00093E01995FF91EF91BF91AF919F918F91FB
:1004F0007F916F915F914F913F912F910F900BBE24
:100500000F9009BE0F9008BE0F900FBE0F901F9066
:1005100018951F920F920FB60F92112408B60F92E2
:1005200018BE09B60F9219BE0BB60F921BBE2F93C1
:100530003F934F935F936F937F938F939F93AF936B
:10054000BF93EF93FF93E091DC20F091DD20309793
:1005500079F08091970385FF06C040E061E080E973
:1005600093E0199505C040E861E080E993E01995B2
:10057000FF91EF91BF91AF919F918F917F916F917B
:100580005F914F913F912F910F900BBE0F9009BE3D
:100590000F9008BE0F900FBE0F901F9018951F92DE
:1005A0000F920FB60F92112408B60F9218BE09B61B
:1005B0000F9219BE0BB60F921BBE2F933F934F9312
:1005C0005F936F937F938F939F93AF93BF93EF93BB
:1005D000FF93E091DC20F091DD20309739F04091DD
:1005E0009703407C60E080E993E01995FF91EF91DB
:1005F000BF91AF919F918F917F916F915F914F913B
:100600003F912F910F900BBE0F9009BE0F9008BE27
:100610000F900FBE0F901F901895CF93DF93E0912E
:10062000E020F091E120848183FF08C0886084830A
:1006300083E0838386EF8093EA2083C0982F9471B0
:1006400031F083E083838FEF8093EA207AC086FFC6
:1006500043C0C0EED0E2AA81BB818C819D811496FB
:100660002D913C911597821793076CF49C012F5F95
:100670003F4F2093E4203093E520A80FB91F119637
:100680008C9187835EC08091E6209091E720189638
:100690002D913C91199782179307C8F42091E82077
:1006A000222321F08681816086834BC016962D918E
:1006B0003C911797AC014F5F5F4F4093E6205093FA
:1006C000E720D901A80FB91F8C9187833AC083E036
:1006D00083831092EA2035C0882384F5A0EEB0E22F
:1006E0001296CD91DC91139716968D919C91179748
:1006F0002885398582179307D8F46E817F819C0104
:100700002F5F3F4F2093E6203093E7204781DB01A6
:10071000A80FB91F4C93888599852817390718F4B5
:1007200082E083830EC087E083831092EA2009C0B1
:1007300083E0838389EF8093EA2003C08BEF80936B
:10074000EA20DF91CF9108951F920F920FB60F927A
:10075000112408B60F9218BE09B60F9219BE0BB637
:100760000F921BBE2F933F934F935F936F937F9393
:100770008F939F93AF93BF93EF93FF934EDFFF91C0
:10078000EF91BF91AF919F918F917F916F915F9109
:100790004F913F912F910F900BBE0F9009BE0F907C
:1007A00008BE0F900FBE0F901F9018951F920F92CA
:1007B0000FB60F92112408B60F9218BE09B60F9209
:1007C00019BE0BB60F921BBE2F933F934F935F93AF
:1007D0006F937F938F939F93AF93BF93EF93FF9309
:1007E0001CDFFF91EF91BF91AF919F918F917F910E
:1007F0006F915F914F913F912F910F900BBE0F9092
:1008000009BE0F9008BE0F900FBE0F901F90189555
:100810001F920F920FB60F92112408B60F9218BEB6
:1008200009B60F9219BE0BB60F921BBE2F933F93C2
:100830004F935F936F937F938F939F93AF93BF93E8
:10084000EF93FF93EADEFF91EF91BF91AF919F91FC
:100850008F917F916F915F914F913F912F910F9069
:100860000BBE0F9009BE0F9008BE0F900FBE0F90E9
:100870001F9018951F920F920FB60F92112408B671
:100880000F9218BE09B60F9219BE0BB60F921BBE7F
:100890002F933F934F935F936F937F938F939F9388
:1008A000AF93BF93EF93FF93B8DEFF91EF91BF91AA
:1008B000AF919F918F917F916F915F914F913F91F8
:1008C0002F910F900BBE0F9009BE0F9008BE0F9096
:1008D0000FBE0F901F9018958F929F92AF92BF926C
:1008E000CF92DF92EF92FF924B015C01CA01B901F6
:1008F0000E9443129B01AC0160E876EE85EC97E420
:100900000E946C110E9424136B017C0120E030E8EE
:100910004FE853E4C501B4010E9464132AE038EEA5
:100920004CE151E40E946C11A70196010E946413EE
:100930000E94131280E090E00E94431228E439EFF5
:1009400041E550E40E946413FF90EF90DF90CF9058
:10095000BF90AF909F908F9008954F925F926F924B
:100960007F928F929F92AF92BF92CF92DF92EF923F
:10097000FF920F931F93CF93DF93CDB7DEB7C4568B
:10098000D109CDBFDEBFB62EA72E982E892E742E8C
:10099000652E522E432EC701B6019E012F5F3F4F99
:1009A000790124E6F70111922A95E9F720E030E079
:1009B00048EC52E40E9464130E9413129F938F9399
:1009C0007F936F931F930F934F925F926F927F92DB
:1009D0008F929F92AF92BF928DE090E29F938F9300
:1009E000FF92EF920E9461160E944C0EFF92EF92CE
:1009F0000E941E16CDBFDEBFCC59DF4FCDBFDEBF7C
:100A0000DF91CF911F910F91FF90EF90DF90CF90EA
:100A1000BF90AF909F908F907F906F905F904F901E
:100A200008951F920F920FB60F92112408B60F92DD
:100A300018BE09B60F9219BE0BB60F921BBE2F93AC
:100A40003F934F935F936F937F938F939F93AF9356
:100A5000BF93EF93FF936091A0088091EB2090915A
:100A6000EC2040D0FF91EF91BF91AF919F918F917A
:100A70007F916F915F914F913F912F910F900BBE9E
:100A80000F9009BE0F9008BE0F900FBE0F901F90E1
:100A90001895FC01A081B1811C9220813181848153
:100AA000A901480F511D638185819681861B91099B
:100AB0004817590799F0678170852617370751F451
:100AC0009F01275F3F4F8217930751F020833183A7
:100AD00081E008954083518381E0089580E0089586
:100AE00080E00895CF93DF93FC01A581B6816C93DC
:100AF00083818F5F8383A581B681CD010196858334
:100B000096836A3009F064C011961C92A581B68163
:100B1000238130E0848190E0821B930B8A0F9B1F1E
:100B2000408151818417950709F44EC0BF01675F6A
:100B30007F4F46175707D1F5C781D085AD01421BBE
:100B4000530BC417D50791F58281882349F1EF0132
:100B5000CF019FDF8A818823D1F04D815E812B8177
:100B600030E0CA01821B930B6F8178858617970747
:100B700028F0CE0109968D839E8310C08C8190E071
:100B8000821B930B840F951F8D839E8307C02B813F
:100B90008D819E81821B91098D839E831B8218C04B
:100BA000A21BB30BA583B683138212C0A21BB30B87
:100BB00027813085A217B30718F06583768302C0BA
:100BC00085839683138204C08281882349F3BFCF33
:100BD000DF91CF9108958FEF8093C308E0ECF8E0A8
:100BE00082818823ECF78091C30808958093C3081D
:100BF000E0ECF8E082818823ECF70895E0E4F6E089
:100C000084818F7E84830895E0E4F6E084818061AE
:100C1000848308952F923F924F925F926F927F92BA
:100C20008F929F92AF92BF92CF92DF92EF92FF92FC
:100C30000F931F93CF93DF9300D01F92CDB7DEB7F2
:100C4000DDDF88E4D3DFE0DF80E090E001968535EA
:100C500020ED9207D9F7D2DF80E0C8DFBCDFC82ED5
:100C6000D12CE12CF12C7601DD24CC24B4DF90E0F2
:100C7000A0E0B0E0BA2FA92F982F8827C80ED91E60
:100C8000EA1EFB1EA8DFC80ED11CE11CF11CBCDF54
:100C9000FF92EF92DF92CF9283E290E29F938F9345
:100CA0000E941E16ABDF88E5A1DFAEDF0F900F902C
:100CB0000F900F900F900F9080E090E00196853597
:100CC00030ED9307D9F79ADF80E090DF84DF482E7C
:100CD000512C612C712C3201552444247CDF90E08E
:100CE000A0E0B0E0BA2FA92F982F8827480E591EF0
:100CF0006A1E7B1E70DF480E511C611C711C84DF54
:100D00007F926F925F924F928EE290E29F938F93C9
:100D10000E941E16C301B2010E9443124B015C01E6
:100D20008091FA209091FB20BC0180E090E00E942D
:100D3000431220E030E040E853E40E9464139B013A
:100D4000AC01C501B4010E9407110E940E12698313
:100D50007A838B839C830E9445124B015C016091D6
:100D600004217091052180E090E00E94431220E070
:100D700030E040E054E30E9464139B01AC01C501E4
:100D8000B4010E94641320E030E04AEF54E40E9472
:100D900008110E940E129F938F937F936F938AE3A3
:100DA00090E29F938F930E941E1616012701609177
:100DB000FE207091FF2080E090E00E94431220E02E
:100DC00030E040E857E40E9464136B017C01A0917D
:100DD000FC20B091FD2029813A814B815C810E94E9
:100DE0001C140E94451220E030E040E05CE30E94C9
:100DF00064139B01AC01C701B6010E9408110E9457
:100E0000D411A22EB32EC42ED52EE62EF72E082FE7
:100E1000192F222D332D442D552D60E070E080E0F8
:100E200090E00E9426140E943F1220E030E040E053
:100E300055E30E9464136B017C0180910221909123
:100E40000321BC0180E090E00E94431220E030E0EA
:100E500040E058E40E9464134B015C01A091002122
:100E6000B091012129813A814B815C810E941C143F
:100E70000E94451220E030E040E85CE30E946413E9
:100E80009B01AC01C501B4010E9408110E94D4115C
:100E90000E943F129B01AC01C701B6010E940711DD
:100EA00020E030E040E058E30E9464130E940E12FC
:100EB000CDBFDEBF2496CDBFDEBFDF91CF911F91A6
:100EC0000F91FF90EF90DF90CF90BF90AF909F90E9
:100ED0008F907F906F905F904F903F902F900895EC
:100EE00088E490E20E94311689DE82EA7FDE73DEBA
:100EF0001092FE208093FF206EDE2091FE20309124
:100F0000FF20280F311D2093FE203093FF207CDE30
:100F10008091FF208F938091FE208F938EE490E24A
:100F20009F938F930E941E1669DE84EA5FDE53DE74
:100F300010920221809303214EDE209102213091F4
:100F40000321280F311D20930221309303215CDE01
:100F5000809103218F93809102218F9386E590E207
:100F60009F938F930E941E1649DE86EA3FDE33DE92
:100F70001092FC208093FD202EDE2091FC203091E9
:100F8000FD20280F311D2093FC203093FD203CDEF6
:100F90008091FD208F938091FC208F938FE590E2CC
:100FA0009F938F930E941E1629DE88EA1FDE13DEB0
:100FB00010920021809301210EDE209100213091BA
:100FC0000121280F311D20930021309301211CDEC7
:100FD000809101218F93809100218F9388E690E288
:100FE0009F938F930E941E1609DE8AEAFFDDF3DDD0
:100FF0001092FA208093FB20EEDD2091FA203091B0
:10100000FB20280F311D2093FA203093FB20FCDDBC
:101010008091FB208F938091FA208F9381E790E25B
:101020009F938F930E941E16E9DD8CEADFDDD3DDEE
:101030001092042180930521CEDD2091042130916E
:101040000521280F311D2093042130930521DCDD7B
:10105000809105218F93809104218F938AE790E2FC
:101060009F938F930E941E1684E890E20E9431168F
:101070008DB79EB748968DBF9EBF0895E0E4F6E019
:101080008081806B808380818F7B808380E58093EB
:10109000C00826CF08950F931F93CF93DF93C0E02E
:1010A000D2E082E08883198280E18A8385E08C83A4
:1010B00061E270E082E058D3082F10E0102F002783
:1010C00060E270E082E050D3082B0C871D8781E03E
:1010D00088A319A280E990E20E943116DF91CF9196
:1010E0001F910F910895CF93DF9386E990E20E94BC
:1010F0003116E0E0F2E080A1806880A38AE990E206
:101100000E94311685E593E2A8E0B0E00197A109BD
:10111000B109E1F7C0E0D2E08BA18EE990E20E9434
:1011200031168CA19DA182EA90E20E94311686EAD6
:1011300090E20E9431168AEA90E20E94311680EB1A
:1011400090E20E9431166FE87CE38DE893E4DF9132
:10115000CF9108958FEF80937000809371008093FA
:101160007200809373008093740080937500809365
:1011700076009FB7F894E0E5F0E08081826080839C
:101180009FBF818181FFFDCF61E080E490E0E6D2E6
:101190009FB7F894E0E5F0E080818E7F80839FBF69
:1011A00008959FB7F894E82FF0E0E059FF4F60955D
:1011B0008081682360839FBF0895CF93DF93FC01F4
:1011C000709620E030E0C62FD0E0DE01022E02C093
:1011D000B595A7950A94E2F7A0FD50832F5F3F4F86
:1011E00031962830310589F740FF0AC041FF03C01E
:1011F000FC01658302C0FC016683FC01618302C0BF
:10120000FC016283DF91CF91089543E050E061E0FB
:1012100080E896E0D2DF43E050E062E080E896E0CC
:10122000CCDF43E050E064E080E896E0C6DF43E0D6
:1012300050E068E080E896E0C0DF43E050E060E125
:1012400080E896E0BADF43E050E060E280E896E0B4
:10125000B4DF43E050E060E480E896E0AEDF43E0D6
:1012600050E060E880E896E0A8DF40E058E161E007
:1012700080E696E0A2DF40E058E162E080E696E09A
:101280009CDF40E058E164E080E696E096DF40E0D5
:1012900058E168E080E696E090DF40E058E160E1E8
:1012A00080E696E08ADF40E058E160E280E696E082
:1012B00084DF40E058E161E080EE97E07EDF40E0CF
:1012C00058E162E080EE97E078DF43E050E060E8CC
:1012D00080E496E072DF43E050E060E280E496E074
:1012E0006CDF40E050E060E480E496E066DF43E0DD
:1012F00050E068E080EC97E060DF40E050E061E0C3
:1013000080E096E05ADF40E050E064E080E096E064
:1013100054DF40E050E062E080E296E04EDF40E0E3
:1013200057E062E080E296E048DF40E057E061E0AD
:1013300080E296E042DF41E050E068E080E296E043
:101340003CDF40E057E064E080E296E036DF43E0D7
:1013500050E068E080EC97E030DF43E050E068E088
:1013600080E496E02ADF40E050E064E080E496E02C
:1013700024DF43E050E068E080E696E01EDF40E0D6
:1013800050E064E080E696E018CF08951F920F9237
:101390000FB60F92112408B60F9218BE09B60F921D
:1013A00019BE0BB60F921BBE2F933F934F935F93C3
:1013B0006F937F938F939F93AF93BF93EF93FF931D
:1013C0004091240250912502E0910821F0910921D9
:1013D00061E080E092E01995FF91EF91BF91AF91AC
:1013E0009F918F917F916F915F914F913F912F913D
:1013F0000F900BBE0F9009BE0F9008BE0F900FBE4E
:101400000F901F9018951F920F920FB60F921124F4
:1014100008B60F9218BE09B60F9219BE0BB60F92FE
:101420001BBE2F933F934F935F936F937F938F9345
:101430009F93AF93BF93EF93FF9340912C025091F2
:101440002D02E0910821F091092162E080E092E014
:101450001995FF91EF91BF91AF919F918F917F91DE
:101460006F915F914F913F912F910F900BBE0F9015
:1014700009BE0F9008BE0F900FBE0F901F901895D9
:101480001F920F920FB60F92112408B60F9218BE3A
:1014900009B60F9219BE0BB60F921BBE2F933F9346
:1014A0004F935F936F937F938F939F93AF93BF936C
:1014B000EF93FF934091340250913502E09108215F
:1014C000F091092164E080E092E01995FF91EF919D
:1014D000BF91AF919F918F917F916F915F914F914C
:1014E0003F912F910F900BBE0F9009BE0F9008BE39
:1014F0000F900FBE0F901F9018951F920F920FB66E
:101500000F92112408B60F9218BE09B60F9219BE99
:101510000BB60F921BBE2F933F934F935F936F9326
:101520007F938F939F93AF93BF93EF93FF934091DC
:101530003C0250913D02E0910821F091092168E0C0
:1015400080E092E01995FF91EF91BF91AF919F914B
:101550008F917F916F915F914F913F912F910F905C
:101560000BBE0F9009BE0F9008BE0F900FBE0F90DC
:101570001F9018951F920F920FB60F92112408B664
:101580000F9218BE09B60F9219BE0BB60F921BBE72
:101590002F933F934F935F936F937F938F939F937B
:1015A000AF93BF93EF93FF93409164025091650214
:1015B000E0910621F091072161E080E492E0199525
:1015C000FF91EF91BF91AF919F918F917F916F911B
:1015D0005F914F913F912F910F900BBE0F9009BEDD
:1015E0000F9008BE0F900FBE0F901F9018951F927E
:1015F0000F920FB60F92112408B60F9218BE09B6BB
:101600000F9219BE0BB60F921BBE2F933F934F93B1
:101610005F936F937F938F939F93AF93BF93EF935A
:10162000FF9340916C0250916D02E0910621F09180
:10163000072162E080E492E01995FF91EF91BF915C
:10164000AF919F918F917F916F915F914F913F915A
:101650002F910F900BBE0F9009BE0F9008BE0F90F8
:101660000FBE0F901F9018951F920F920FB60F92FA
:10167000112408B60F9218BE09B60F9219BE0BB608
:101680000F921BBE2F933F934F935F936F937F9364
:101690008F939F93AF93BF93EF93FF934091740207
:1016A00050917502E0910621F091072164E080E4F9
:1016B00092E01995FF91EF91BF91AF919F918F911A
:1016C0007F916F915F914F913F912F910F900BBE42
:1016D0000F9009BE0F9008BE0F900FBE0F901F9085
:1016E00018951F920F920FB60F92112408B60F9201
:1016F00018BE09B60F9219BE0BB60F921BBE2F93E0
:101700003F934F935F936F937F938F939F93AF9389
:10171000BF93EF93FF9340917C0250917D02E09143
:101720000621F091072168E080E492E01995FF918D
:10173000EF91BF91AF919F918F917F916F915F9149
:101740004F913F912F910F900BBE0F9009BE0F90BC
:1017500008BE0F900FBE0F901F9018951BBEFC0186
:1017600028ED24BF608308954091CA01E62FF72F2A
:101770008093CA0184914093CA010895FC0191812C
:1017800095FFFDCF608380E090E00895FC0191819A
:101790009923ECF7808108952F923F924F925F92A8
:1017A0006F927F928F929F92AF92BF92CF92DF9271
:1017B000EF92FF920F931F93CF931C012A013B01DD
:1017C00048015901D901C801689412F8B695A79546
:1017D000979587951694D1F7B901A801032E36E1A4
:1017E00076956795579547953A95D1F7302DF10144
:1017F000248122FD08C0B695A79597958795769583
:1018000067955795479584159505A605B70508F47E
:10181000AAC0441655066606770608F4A6C0F1016C
:10182000848182FD04C0440C551C661C771CC501D4
:10183000B401A3019201DED72F3F310541055105C7
:1018400008F495C0C12CD12C7601CA94C9EF05C00B
:101850002C153D054E055F0568F0CC0CDD1CEE1C1B
:10186000FF1CCD3F14F46894C0F8CF5FC73081F7F8
:101870008C2F54C08C2FCC230CF050C0D301C2014C
:10188000880F991FAA1FBB1F880F991FAA1FBB1F74
:10189000880F991FAA1FBB1F85017401E81AF90A56
:1018A0000A0B1B0BD801C701CE3FECF42DEF3FEF25
:1018B0002C1B3109C7FD339504C0880F991FAA1F3F
:1018C000BB1F2A95D2F773016201F694E794D7946F
:1018D000C794BC01CD016C0D7D1D8E1D9F1DA30104
:1018E000920188D736C023E02C0F8301720104C017
:1018F000EE0CFF1C001F111F2A95D2F7A8019701BB
:1019000067017801F694E794D794C794BC01CD01A0
:101910006C0D7D1D8E1D9F1D6DD71BC08D5FA3019E
:10192000920104C0220F331F441F551F8A95D2F71E
:10193000DA01C901B695A79597958795BC01CD01A8
:10194000680D791D8A1D9B1D55D72150310941090C
:101950005109832F8F70C295C07FC82BF101C783B7
:10196000268381E01CC080E01AC080E018C0D3014B
:10197000C201880F991FAA1FBB1F880F991FAA1F9A
:10198000BB1F880F991FAA1FBB1F85017401E81A8E
:10199000F90A0A0B1B0BD801C701C9EF87CFCF91FA
:1019A0001F910F91FF90EF90DF90CF90BF90AF907D
:1019B0009F908F907F906F905F904F903F902F906F
:1019C00008950F931F93CF93DF93EC018B01009742
:1019D00009F436C1803C910521F460E180E0E1DB4F
:1019E0002FC1C03484E0D80721F468E080E0D9DB5F
:1019F00027C1C115E4E0DE0721F464E080E0D1DB1B
:101A00001FC1C038F1E0DF0721F462E080E0C9DBEC
:101A100017C1C11581E0D80721F461E080E0C1DB86
:101A20000FC1C038E3E0DE0721F461E081E0B9DBFB
:101A300007C1C039F3E0DF0721F461E082E0B1DBE8
:101A4000FFC0C11582E0D80721F462E081E0A9DB84
:101A5000F7C0C034E2E0DE0721F462E082E0A1DBFF
:101A6000EFC0C115F3E0DF0721F464E081E099DB0A
:101A7000E7C0C03283E0D80721F464E082E091DB64
:101A8000DFC0C115E8E0DE0721F461E083E089DB17
:101A9000D7C0C115F9E0DF0721F461E084E081DB04
:101AA000CFC0C1158AE0D80721F461E085E079DB79
:101AB000C7C0C115EBE0DE0721F461E086E071DB11
:101AC000BFC0C034F8E0DF0721F462E083E069DBE7
:101AD000B7C0C03489E0D80721F462E084E061DB5C
:101AE000AFC0C034EAE0DE0721F462E085E059DBF4
:101AF000A7C0C034FBE0DF0721F462E086E051DBE1
:101B00009FC0C03988E0D80721F464E083E049DB56
:101B100097C0C039E9E0DE0721F464E084E041DBEE
:101B20008FC0C039FAE0DF0721F464E085E039DBDB
:101B300087C0C0398BE0D80721F464E086E031DB50
:101B40007FC0C03CE8E0DE0721F468E083E029DBE9
:101B500077C0C03CF9E0DF0721F468E084E021DBD6
:101B60006FC0C03C8AE0D80721F468E085E019DB4B
:101B700067C0C03CEBE0DE0721F468E086E011DBE3
:101B80005FC0C03AF8E0DF0721F460E183E009DBE1
:101B900057C0C03A89E0D80721F460E184E001DB56
:101BA0004FC0C03AEAE0DE0721F460E185E0F9DAEF
:101BB00047C0C03AFBE0DF0721F460E186E0F1DADC
:101BC0003FC0C03B88E0D80721F460E283E0E9DA57
:101BD00037C0C03BE9E0DE0721F460E284E0E1DAEF
:101BE0002FC0C03BFAE0DF0721F460E285E0D9DADC
:101BF00027C0C03B8BE0D80721F460E286E0D1DA51
:101C00001FC0C038E4E0DE0721F460E483E0C9DAF5
:101C100017C0C039F4E0DF0721F460E484E0C1DAE2
:101C20000FC0C03A84E0D80721F460E485E0B9DA57
:101C300007C0C03BE4E0DE0719F460E486E0B1DAF7
:101C40008D818F738D83F80194818581892B968195
:101C5000911198E0892B8D83F80140815181628137
:101C6000738100E018E428EE31E0CE0195DD9C811F
:101C700098609C839C8190619C83DF91CF911F91A0
:101C80000F910895CF93DF93EB0180DD8883DF917F
:101C9000CF91089573CD0895CF93DF93CDB7DEB77D
:101CA0002797CDBFDEBFE0E4F6E088E0818385833F
:101CB0008FEF848380EA98E08093F8209093F92056
:101CC0008AE49EE08093F6209093F72082E49EE0E1
:101CD0008093F4209093F520E6E0F0E284818D83F8
:101CE00085818E8386818F8380819181A281B3815A
:101CF00089839A83AB83BC8360E183E052DABE01BF
:101D00006F5F7F4F80EA98E05CDE6EE471E087E60B
:101D100091E04AD72796CDBFDEBFDF91CF910895DE
:101D2000009709F435C1803C910521F460E180E021
:101D300038CA0895803424E0920721F468E080E0F6
:101D400030CA0895811524E0920721F464E080E010
:101D500028CA0895803821E0920721F462E080E0EB
:101D600020CA0895811521E0920721F461E080E006
:101D700018CA0895803823E0920721F461E081E0D9
:101D800010CA0895803923E0920721F461E082E0CF
:101D900008CA0895811522E0920721F462E081E0EB
:101DA00000CA0895803422E0920721F462E082E0C4
:101DB000F8C90895811523E0920721F464E081E0D9
:101DC000F0C90895803223E0920721F464E082E0B4
:101DD000E8C90895811528E0920721F461E083E0C5
:101DE000E0C90895811529E0920721F461E084E0BB
:101DF000D8C9089581152AE0920721F461E085E0B1
:101E0000D0C9089581152BE0920721F461E086E0A6
:101E1000C8C90895803428E0920721F462E083E085
:101E2000C0C90895803429E0920721F462E084E07B
:101E3000B8C9089580342AE0920721F462E085E071
:101E4000B0C9089580342BE0920721F462E086E067
:101E5000A8C90895803928E0920721F464E083E05E
:101E6000A0C90895803929E0920721F464E084E054
:101E700098C9089580392AE0920721F464E085E04A
:101E800090C9089580392BE0920721F464E086E040
:101E900088C90895803C28E0920721F468E083E037
:101EA00080C90895803C29E0920721F468E084E02D
:101EB00078C90895803C2AE0920721F468E085E023
:101EC00070C90895803C2BE0920721F468E086E019
:101ED00068C90895803A28E0920721F460E183E020
:101EE00060C90895803A29E0920721F460E184E016
:101EF00058C90895803A2AE0920721F460E185E00C
:101F000050C90895803A2BE0920721F460E186E001
:101F100048C90895803B28E0920721F460E283E0FD
:101F200040C90895803B29E0920721F460E284E0F3
:101F300038C90895803B2AE0920721F460E285E0E9
:101F400030C90895803B2BE0920721F460E286E0DF
:101F500028C90895803824E0920721F460E483E0E2
:101F600020C90895803924E0920721F460E484E0D8
:101F700018C90895803A24E0920721F460E485E0CE
:101F800010C90895803B944019F460E486E009C9C3
:101F900008953BD9DFD880E092E0C2DE80EA98E085
:101FA000BFDE80E09AE0BCDE80EC98E0B9DE64E061
:101FB00085E0F7D868E083E0F4D86EDE6CD88AEA72
:101FC00090EBA8E2B0E00197A109B109E1F787EB36
:101FD00090E247D653D8C6ECD0E20F2EF4E5EF2EB0
:101FE000F02D0F2EFDECFF2EF02D0DE213E07BD82F
:101FF0009F938F937F936F93DF93CF931FD60F9011
:102000000F900F900F900F900F908E2D9F2DA02F5F
:10201000B12F0197A109B109E1F78AEC90E221D62D
:10202000E6CF1F920F920FB60F92112408B60F92AF
:1020300018BE09B60F9219BE0BB60F921BBECF92F7
:10204000DF92EF92FF920F931F932F933F934F9343
:102050005F936F937F938F939F93AF93BF93CF9330
:10206000EF93FF93CFB7F8948091F3208F5F809325
:10207000F3200E940A066B017C0135D8A701960166
:102080000E946C046B017C010091ED201091EE2008
:102090002091EF203091F0204091F1205091F220DA
:1020A0008091F320682F70E080E090E00E94AD0402
:1020B0001092F1201092F2201092EF201092F02056
:1020C0001092ED201092EE20CFBFFF91EF91CF91B3
:1020D000BF91AF919F918F917F916F915F914F9140
:1020E0003F912F911F910F91FF90EF90DF90CF9034
:1020F0000F900BBE0F9009BE0F9008BE0F900FBE41
:102100000F901F9018951F920F920FB60F921124E7
:1021100008B60F9218BE09B60F9219BE0BB60F92F1
:102120001BBE2F933F934F935F936F937F938F9338
:102130009F93AF93BF93CF93EF93FF93CFB7F89451
:102140008FEC90E28ED58091F1209091F220019653
:102150008093F1209093F220CFBFFF91EF91CF9128
:10216000BF91AF919F918F917F916F915F914F91AF
:102170003F912F910F900BBE0F9009BE0F9008BE9C
:102180000F900FBE0F901F9018951F920F920FB6D1
:102190000F92112408B60F9218BE09B60F9219BEFD
:1021A0000BB60F921BBE2F933F934F935F936F938A
:1021B0007F938F939F93AF93BF93CF93EF93FF93AF
:1021C000CFB7F89486ED90E24CD58091EF209091B6
:1021D000F02001968093EF209093F020CFBFFF91E5
:1021E000EF91CF91BF91AF919F918F917F916F911F
:1021F0005F914F913F912F910F900BBE0F9009BEB1
:102200000F9008BE0F900FBE0F901F90189550585A
:10221000BB27AA270ED0D9C1CAD130F0CFD120F028
:1022200031F49F3F11F41EF4AFC10EF4E095E7FBCB
:10223000A5C1E92FDBD180F3BA17620773078407C2
:10224000950718F071F49EF5F3C10EF4E0950B2E8E
:10225000BA2FA02D0B01B90190010C01CA01A001F8
:102260001124FF27591B99F0593F50F4503E68F153
:102270001A16F040A22F232F342F4427585FF3CF94
:10228000469537952795A795F0405395C9F77EF465
:102290001F16BA0B620B730B840BBAF09150A1F0AE
:1022A000FF0FBB1F661F771F881FC2F70EC0BA0F34
:1022B000621F731F841F48F4879577956795B795BC
:1022C000F7959E3F08F0B3CF9395880F08F09927B4
:1022D000EE0F9795879508950CD077C16FD140F098
:1022E00066D130F021F45F3F19F048C15111A1C10E
:1022F0004BC17CD198F39923C9F35523B1F3951BB6
:10230000550BBB27AA2762177307840738F09F5F16
:102310005F4F220F331F441FAA1FA9F333D00E2E85
:102320003AF0E0E830D091505040E695001CCAF7F2
:1023300029D0FE2F27D0660F771F881FBB1F2617B7
:1023400037074807AB07B0E809F0BB0B802DBF018A
:10235000FF2793585F4F2AF09E3F510568F00EC14A
:1023600068C15F3FECF3983EDCF3869577956795FF
:10237000B795F7959F5FC9F7880F911D969587953B
:1023800097F90895E1E0660F771F881FBB1F62175A
:1023900073078407BA0720F0621B730B840BBA0B18
:1023A000EE1F88F7E0950895BEE304D008F490E8A6
:1023B0000895BFE322273327A90120D158F19F5761
:1023C00040F1B91738F1BFE3B91B9927B8503AF477
:1023D000660F771F881F991FB395D2F316C0B850A8
:1023E0004AF0232F342F452F562F672F782F882719
:1023F000B850BAF7B85F49F08695779567955795C5
:10240000479537952795BA95B9F70EF4C0D08894BB
:102410000895889460E070E0CB01089504D068943A
:10242000B11107C10895EAD088F09F5790F0B92FF5
:102430009927B751A0F0D1F0660F771F881F991F19
:102440001AF0BA95C9F712C0B13081F0F1D0B1E0FD
:102450000895EEC0672F782F8827B85F39F0B93F0D
:10246000CCF3869577956795B395D9F73EF490951B
:102470008095709561957F4F8F4F9F4F089597FB83
:102480000EF485D03EC0E89409C097FB3EF49095C9
:102490008095709561957F4F8F4F9F4F9923A9F03D
:1024A000F92F96E9BB279395F695879577956795CC
:1024B000B795F111F8CFFAF4BB0F11F460FF1BC010
:1024C0006F5F7F4F8F4F9F4F16C0882311F096E9A3
:1024D00011C0772321F09EE8872F762F05C0662351
:1024E00071F096E8862F70E060E02AF09A95660F0A
:1024F000771F881FDAF7880F9695879597F90895C3
:10250000E894F92F96EBFF2381F0121613061406B8
:10251000440B9395F6958795779567955795404029
:10252000FF23B9F71BC099270895882351F49850C9
:10253000D2F7872B762F652F542F432F322F20E091
:10254000B1F3121613061406440B88233AF09A9539
:10255000440F551F661F771F881FCAF755234AF47B
:10256000440F551F11F460FF04C06F5F7F4F8F4F02
:102570009F4F880F9695879597F9089597F99F67CC
:1025800080E870E060E008959FEF80EC08959095FA
:1025900080957095609550954095309521953F4F69
:1025A0004F4F5F4F6F4F7F4F8F4F9F4F08950024C6
:1025B0000A941616170618060906089500240A94A8
:1025C00012161306140605060895092E0394000C2E
:1025D00011F4882352F0BB0F40F4BF2B11F460FFBD
:1025E00004C06F5F7F4F8F4F9F4F089557FD9058E6
:1025F000440F551F59F05F3F71F04795880F97FBC7
:10260000991F61F09F3F79F0879508951216130680
:102610001406551FF2CF4695F1DF08C016161706AF
:102620001806991FF1CF86957105610508940895E4
:10263000E894BB2766277727CB0197F908950EF01A
:10264000A6C0A2CF68949ACFD9DFC8F39923D1F35B
:10265000C6F3DF93CF931F930F93FF92C92FDD270C
:1026600088232AF02197660F771F881FDAF720E06A
:1026700030E040E85FEB9FE3883920F0803E30F0A7
:1026800021968F77C5DDE4EFF1E003C0C1DDE1E223
:10269000F2E08BD08B01BE01EC01FB2E6F5771096C
:1026A0007595771F880B990BF0DE28E132E741E33F
:1026B0005FE316D0AF2D9801AE01FF900F911F91EF
:1026C000CF91DF91B6DD81CF0BD07FCF70DF28F0C7
:1026D00075DF18F0952309F051CF56CF1124A9CFFB
:1026E00085DFA0F3959FD1F3950F50E0551F629FB2
:1026F000F001729FBB27F00DB11D639FAA27F00D5B
:10270000B11DAA1F649F6627B00DA11D661F829F81
:102710002227B00DA11D621F739FB00DA11D621F66
:10272000839FA00D611D221F749F3327A00D611D83
:10273000231F849F600D211D822F762F6A2F112465
:102740009F5750408AF0E1F088234AF0EE0FFF1FB8
:10275000BB1F661F771F881F91505040A9F79E3FEF
:10276000510570F00BCF65CF5F3FECF3983EDCF383
:10277000869577956795B795F795E7959F5FC1F72C
:10278000FE2B880F911D9695879597F908959F3F89
:1027900031F0915020F4879577956795B795880F1C
:1027A000911D9695879597F90895DF93CF931F9381
:1027B0000F93FF92EF92DF927B018C01689405C02A
:1027C000DA2EEF018DDFFE01E894A5912591359178
:1027D00045915591AEF3EF012CDDFE019701A80163
:1027E000DA9479F7DF90EF90FF900F911F91CF91DE
:1027F000DF910895A1E21A2EAA1BBB1BFD010DC09B
:10280000AA1FBB1FEE1FFF1FA217B307E407F507A0
:1028100020F0A21BB30BE40BF50B661F771F881F7C
:10282000991F1A9469F760957095809590959B0112
:10283000AC01BD01CF0108955AD0A59F900DB49F62
:10284000900DA49F800D911D11240895DF93CF93C7
:102850001F930F939A9DF02D219FF00D8B9DF00DEE
:102860008A9DE02DF10D039FF00D029FE00DF11DFB
:102870004E9DE00DF11D5E9DF00D4F9DF00D7F937F
:102880006F93BF92AF925F934F93D50130D08B017E
:10289000AC01D7012CD0EB01E80FF91FD6011FD0F6
:1028A0002F913F91D60123D0C60FD71FE81FF91FE4
:1028B000AF91BF9114D02F913F9119D0C60FD71F60
:1028C000E81FF91FD60113D0E60FF71F9801BE01CC
:1028D000CF0111240F911F91CF91DF91089507D05F
:1028E000460F571FC81FD91F08F431960895A29F9D
:1028F000B001B39FC001A39F700D811D1124911DD4
:10290000B29F700D811D1124911D08950F931F9387
:10291000CF93DF93869F8001879F100D969F100DA8
:102920001124C8010DD0EC01009721F0A80160E04E
:1029300070E033D1CE01DF91CF911F910F910895B7
:10294000CF93DF938230910510F482E090E0E09124
:102950000C21F0910D2120E030E0C0E0D0E0309774
:1029600011F14081518148175907C0F048175907A4
:1029700061F482819381209719F08A839B832BC015
:1029800080930C2190930D2126C02115310519F05B
:102990004217530718F49A01BE01DF01EF010280CC
:1029A000F381E02DDCCF2115310509F1281B390B0E
:1029B0002430310590F412968D919C9113976115F6
:1029C000710521F0FB018283938304C080930C2165
:1029D00090930D21FD01329644C0FD01E20FF31FDB
:1029E00081939193225031092D933C933AC02091C9
:1029F0000A2130910B21232B41F4209102203091A8
:102A0000032020930A2130930B2120910020309144
:102A100001202115310541F42DB73EB74091042026
:102A200050910520241B350BE0910A21F0910B21D8
:102A3000E217F307A0F42E1B3F0B2817390778F095
:102A4000AC014E5F5F4F2417350748F04E0F5F1FF4
:102A500040930A2150930B218193919302C0E0E0AF
:102A6000F0E0CF01DF91CF9108950F931F93CF93A3
:102A7000DF93009709F48CC0FC0132971282138215
:102A800000910C2110910D210115110581F4208177
:102A90003181820F931F20910A2130910B21281739
:102AA000390779F5E0930A21F0930B2171C0D80121
:102AB00040E050E0AE17BF0750F412962D913C91C4
:102AC0001397AD012115310509F1D901F3CF9D010E
:102AD000DA012283338360817181860F971F821709
:102AE000930769F4EC0128813981260F371F2E5F87
:102AF0003F4F208331838A819B8182839383452B3F
:102B000029F4E0930C21F0930D2142C01296ED932D
:102B1000FC931397ED01499159919E01240F351FA4
:102B2000E217F30771F480819181840F951F02965B
:102B30008D939C9311978281938112968D939C9390
:102B40001397E0E0F0E0D80112968D919C911397D5
:102B5000009719F0F8018C01F6CF8D919C919801A6
:102B60002E5F3F4F820F931F20910A2130910B213E
:102B70002817390769F4309729F410920C21109224
:102B80000D2102C01282138200930A2110930B219F
:102B9000DF91CF911F910F910895DC0101C06D93DA
:102BA00041505040E0F708950F931F93CF93DF9368
:102BB000009731F46115710519F480E090E039C097
:102BC0008B01EC016EE070E081E090E09FDEFC01A3
:102BD000892B99F380E883830115110571F0028731
:102BE000138781E8838380910E2190910F21892B97
:102BF00021F4E0930E21F0930F212097C9F0C087B4
:102C0000D1878381826083838091102190911121EB
:102C1000892B71F4E0931021F093112180911221FE
:102C200090911321892B21F4E0931221F093132129
:102C3000CF01DF91CF911F910F910895CF93DF9333
:102C4000CDB7DEB7AE014A5F5F4FFA016191719176
:102C5000AF0180911021909111215CD0DF91CF9133
:102C600008950F931F93CF93DF93E0911021F0917C
:102C70001121238121FF1BC08C01D0E0C0E0F801AD
:102C800081918F016091102170911121DB011896C3
:102C9000ED91FC911997882331F01995892B79F3DF
:102CA000DFEFCFEFECCF8AE01995892B19F08FEF8A
:102CB0009FEF02C08D2F9C2FDF91CF911F910F911D
:102CC00008950F931F93CF93DF93CDB7DEB72E9761
:102CD000CDBFDEBF0E891F8986E08C8309831A83EE
:102CE0008FEF9FE78D839E83AE01465E5F4F688DB9
:102CF000798DCE0101960ED02F813885F801E20F33
:102D0000F31F10822E96CDBFDEBFDF91CF911F91B2
:102D10000F9108952F923F924F925F926F927F9200
:102D20008F929F92AF92BF92CF92DF92EF92FF92DB
:102D30000F931F93CF93DF93CDB7DEB72C97CDBF03
:102D4000DEBF7C016B018A01FC0116821782838140
:102D500081FFB0C1CE0101964C01F7019381F601CC
:102D600093FD859193FF81916F01882309F49EC1A2
:102D7000853239F493FD859193FF81916F018532FE
:102D800021F4B70190E0C4D1E8CF512C312C20E0E0
:102D90002032A0F48B3269F030F4803259F0833263
:102DA00069F420612CC08D3239F0803339F4216010
:102DB00026C02260246023C0286021C027FD27C0D0
:102DC00030ED380F3A3078F426FF06C0FAE05F9E07
:102DD000300D1124532E13C08AE0389E300D11247B
:102DE000332E20620CC08E3221F426FD5FC1206498
:102DF00006C08C3611F4206802C0883641F4F60112
:102E000093FD859193FF81916F018111C1CF982F1F
:102E10009F7D9554933028F40C5F1F4FFFE3F98397
:102E20000DC0833631F0833771F0833509F057C018
:102E300021C0F801808189830E5F1F4F4424439491
:102E4000512C540114C03801F2E06F0E711CF801CE
:102E5000A080B18026FF03C0652D70E002C06FEF37
:102E60007FEFC5012C8749D12C0183012C852F7759
:102E7000222E16C03801F2E06F0E711CF801A080FE
:102E8000B18026FF03C0652D70E002C06FEF7FEFB9
:102E9000C5012C8727D12C012C852068222E830187
:102EA00023FC19C0832D90E048165906A0F4B70101
:102EB00080E290E02DD13A94F5CFF50127FC859181
:102EC00027FE81915F01B70190E022D131103A9441
:102ED000F1E04F1A51084114510479F7DEC08436ED
:102EE00011F0893631F5F80127FF07C06081718143
:102EF000828193810C5F1F4F08C060817181072E12
:102F0000000C880B990B0E5F1F4F2F76722E97FFC8
:102F100009C090958095709561957F4F8F4F9F4F19
:102F20002068722E2AE030E0A4012AD1A82EA81829
:102F300043C0853729F42F7EB22E2AE030E025C029
:102F4000F22FF97FBF2E8F36C1F018F4883579F053
:102F5000ADC0803719F0883721F0A8C02F2F20612D
:102F6000B22EB4FE0DC08B2D8460B82E09C024FF94
:102F70000AC09F2F9660B92E06C028E030E005C039
:102F800020E130E002C020E132E0F801B7FE07C0E6
:102F900060817181828193810C5F1F4F06C06081C7
:102FA000718180E090E00E5F1F4FA401E9D0A82E50
:102FB000A818FB2DFF777F2E76FE0BC0372D3E7FA6
:102FC000A51450F474FE0AC072FC08C0372D3E7E72
:102FD00005C0BA2C372D03C0BA2C01C0B52C34FF64
:102FE0000DC0FE01EA0DF11D8081803311F4397EA0
:102FF00009C032FF06C0B394B39404C0832F86780F
:1030000009F0B39433FD12C030FF06C05A2CB3143C
:1030100018F4530C5B18B32CB31460F4B70180E2BE
:1030200090E03C8775D0B3943C85F6CFB31410F490
:103030003B1801C0312C34FF11C0B70180E390E090
:103040003C8766D03C8532FF16C031FD03C088E75F
:1030500090E002C088E590E0B7010CC0832F86782D
:1030600051F031FF02C08BE201C080E237FD8DE2FA
:10307000B70190E04DD0A51430F4B70180E390E0A3
:1030800047D05A94F8CFAA94F401EA0DF11D80813B
:10309000B70190E03DD0A110F6CF332009F45DCE0A
:1030A000B70180E290E034D03A94F7CFF7018681FF
:1030B000978102C08FEF9FEF2C96CDBFDEBFDF91CF
:1030C000CF911F910F91FF90EF90DF90CF90BF9025
:1030D000AF909F908F907F906F905F904F903F90B8
:1030E0002F900895FC010590615070400110D8F7B1
:1030F000809590958E0F9F1F0895FC016150704040
:1031000001900110D8F7809590958E0F9F1F08951C
:103110000F931F93CF93DF93FB01238121FD03C006
:103120008FEF9FEF28C022FF16C046815781248170
:1031300035814217530744F4A081B1819D012F5F6F
:103140003F4F208331838C93268137812F5F3F4F00
:103150002683378310C0EB01092F182F0084F185D7
:10316000E02D1995892BE1F68E819F8101968E8342
:103170009F83812F902FDF91CF911F910F91089501
:10318000FA01AA27283051F1203181F1E8946F9398
:103190006E7F6E5F7F4F8F4F9F4FAF4FB1E03ED03E
:1031A000B4E03CD0670F781F891F9A1FA11D680FDC
:1031B000791F8A1F911DA11D6A0F711D811D911D0F
:1031C000A11D20D009F468943F912AE0269F112484
:1031D0003019305D3193DEF6CF010895462F4770E8
:1031E000405D4193B3E00FD0C9F7F6CF462F4F7043
:1031F000405D4A3318F0495D31FD4052419302D0A1
:10320000A9F7EACFB4E0A695979587957795679546
:10321000BA95C9F700976105710508959B01AC0146
:103220000A2E06945795479537952795BA95C9F76D
:10323000620F731F841F951FA01D0895F894FFCF80
:1032400000001421200000C20100030001256C755C
:103250002C2025752C2025752C2025752C20256CDF
:10326000750A005448494E4720256C750A00544899
:10327000494E473220256C750A005245414C544551
:103280004D5020256C750A004669727374006331D5
:103290003A2025750A0063323A202575200A00631A
:1032A000333A202575200A0063343A202575200A18
:1032B0000063353A202575200A0063363A202575CB
:1032C000200A2000436C65617265642056617200BB
:1032D00042657961770070656500676565006C65BA
:1032E00065006B65650045617400736C6565700011
:1032F0005265706561740053657475702066696EFF
:1033000069736865640025640A005465737400611C
:0C3310006C70686121006265746121002E
:00000001FF
