:10000000F9C000001CC100001AC1000018C10000A6
:1000100016C1000014C1000012C1000010C1000090
:100020000EC100000CC100000AC1000008C10000A0
:1000300006C1000004C1000002C1000000C10000B0
:10004000FEC00000FCC00000FAC00000F8C00000C4
:10005000F6C00000F4C00000F2C00000F0C00000D4
:10006000EEC00000ECC00000EAC00000E8C00000E4
:10007000E6C00000E4C00000E2C00000E0C00000F4
:10008000DEC00000DCC00000DAC00000D8C0000004
:10009000D6C00000D4C00000D2C00000D0C0000014
:1000A000CEC00000CCC00000CAC00000C8C0000024
:1000B000C6C00000C4C00000C2C00000F4C60000FA
:1000C000BEC00000BCC00000BAC00000B8C0000044
:1000D000B6C00000B4C00000B2C00000B0C0000054
:1000E000AEC00000ACC00000AAC00000A8C0000064
:1000F000A6C00000A4C00000A2C00000A0C0000074
:1001000053C7000093C70000D3C7000098C0000089
:1001100096C0000094C0000092C0000090C0000093
:100120008EC000008CC000008AC0000088C00000A3
:1001300086C0000084C0000082C0000080C00000B3
:100140007EC000007CC000007AC0000078C00000C3
:1001500076C0000074C0000072C0000070C00000D3
:100160006EC000006CC000006AC0000068C00000E3
:1001700066C0000064C0000062C0000060C00000F3
:100180005EC000005CC000005AC0000058C0000003
:1001900056C0000054C0000052C0000050C0000013
:1001A0004EC000004CC000004AC0000048C0000023
:1001B00046C0000044C0000042C0000040C0000033
:1001C0003EC000003CC000003AC0000038C0000043
:1001D00036C0000034C0000032C0000030C0000053
:1001E0002EC000002CC000002AC0000028C0000063
:1001F00026C0000011241FBECFEFCDBFDFE3DEBF5E
:1002000000E00CBF18BE19BE1ABE1BBE10E2A0E073
:10021000B0E2E4E9FCE100E00BBF02C007900D9200
:10022000AE34B107D9F71BBE20E2AEE4B0E201C0A4
:100230001D92A936B207E1F7DED50C94480EE0CE48
:100240008FEF809370008093710080937200809391
:1002500073008093740080937500809376000895F6
:100260009FB7F894E82FF0E0E059FF4F6095808148
:10027000682360839FBF0895CF93DF93FC0170963E
:1002800020E030E0C62FD0E0DE01022E02C0B5959E
:10029000A7950A94E2F7A0FD50832F5F3F4F319658
:1002A0002830310589F740FF0AC041FF03C0FC0137
:1002B000658302C0FC016683FC01618302C0FC010E
:1002C0006283DF91CF910895CF93DF931F92CDB7D3
:1002D000DEB780915D2090915E20E0915920F091F1
:1002E0005A20BE016F5F7F4F19958981082E000C3F
:1002F000990B0F90DF91CF910895682F80915D2029
:1003000090915E20E0915B20F0915C2019959923FB
:100310001CF081E090E008958FEF9FEF089543E097
:1003200050E061E080E896E0A7DF43E050E062E063
:1003300080E896E0A1DF43E050E064E080E896E0EA
:100340009BDF43E050E068E080E896E095DF43E023
:1003500050E060E180E896E08FDF43E050E060E24B
:1003600080E896E089DF43E050E060E480E896E0D2
:1003700083DF43E050E060E880E896E07DDF40E026
:1003800058E161E080E696E077DF40E058E162E026
:1003900080E696E071DF40E058E164E080E696E0B8
:1003A0006BDF40E058E168E080E696E065DF40E022
:1003B00058E160E180E696E05FDF40E058E160E20E
:1003C00080E696E059DF40E058E161E080EE97E09A
:1003D00053DF40E058E162E080EE97E04DDF43E01C
:1003E00050E060E880E496E047DF43E050E060E200
:1003F00080E496E041DF40E050E060E480E496E095
:100400003BDF43E050E068E080EC97E035DF40E020
:1004100050E061E080E096E02FDF40E050E064E0F3
:1004200080E096E029DF40E050E062E080E296E084
:1004300023DF40E057E062E080E296E01DDF40E02D
:1004400057E061E080E296E017DF41E050E068E0CD
:1004500080E296E011DF40E057E064E080E296E061
:100460000BDF43E050E068E080EC97E005DF43E01D
:1004700050E068E080E496E0FFDE40E050E064E0B9
:1004800080E496E0F9DE43E050E068E080E696E044
:10049000F3DE40E050E064E080E696E0EDCE0895C3
:1004A000FC01918195FFFDCF608380E090E008958D
:1004B000FC0191819923ECF7808108952F923F925E
:1004C0004F925F926F927F928F929F92AF92BF9264
:1004D000CF92DF92EF92FF920F931F93CF931C0165
:1004E0002A013B0148015901D901C801689412F859
:1004F000B695A795979587951694D1F7B901A80158
:10050000032E36E176956795579547953A95D1F73D
:10051000302DF101248122FD08C0B695A79597954D
:100520008795769567955795479584159505A60502
:10053000B70508F4AAC0441655066606770608F4FF
:10054000A6C0F101848182FD04C0440C551C661CC8
:10055000771CC501B401A3019201E0D62F3F3105FC
:100560004105510508F495C0C12CD12C7601CA94DF
:10057000C9EF05C02C153D054E055F0568F0CC0C94
:10058000DD1CEE1CFF1CCD3F14F46894C0F8CF5F57
:10059000C73081F78C2F54C08C2FCC230CF050C067
:1005A000D301C201880F991FAA1FBB1F880F991F73
:1005B000AA1FBB1F880F991FAA1FBB1F85017401AB
:1005C000E81AF90A0A0B1B0BD801C701CE3FECF45D
:1005D0002DEF3FEF2C1B3109C7FD339504C0880F69
:1005E000991FAA1FBB1F2A95D2F773016201F694C7
:1005F000E794D794C794BC01CD016C0D7D1D8E1D71
:100600009F1DA30192018AD636C023E02C0F8301DF
:10061000720104C0EE0CFF1C001F111F2A95D2F7B7
:10062000A801970167017801F694E794D794C794DD
:10063000BC01CD016C0D7D1D8E1D9F1D6FD61BC095
:100640008D5FA301920104C0220F331F441F551F69
:100650008A95D2F7DA01C901B695A795979587953E
:10066000BC01CD01680D791D8A1D9B1D57D62150F7
:10067000310941095109832F8F70C295C07FC82B62
:10068000F101C783268381E01CC080E01AC080E0AE
:1006900018C0D301C201880F991FAA1FBB1F880F62
:1006A000991FAA1FBB1F880F991FAA1FBB1F850177
:1006B0007401E81AF90A0A0B1B0BD801C701C9EF2C
:1006C00087CFCF911F910F91FF90EF90DF90CF9048
:1006D000BF90AF909F908F907F906F905F904F9062
:1006E0003F902F9008950F931F93CF93DF93EC01CA
:1006F0008B01009709F436C1803C910521F460E13B
:1007000080E0AEDD2FC1C03484E0D80721F468E07A
:1007100080E0A6DD27C1C115E4E0DE0721F464E036
:1007200080E09EDD1FC1C038F1E0DF0721F462E008
:1007300080E096DD17C1C11581E0D80721F461E0A2
:1007400080E08EDD0FC1C038E3E0DE0721F461E018
:1007500081E086DD07C1C039F3E0DF0721F461E005
:1007600082E07EDDFFC0C11582E0D80721F462E09F
:1007700081E076DDF7C0C034E2E0DE0721F462E01C
:1007800082E06EDDEFC0C115F3E0DF0721F464E025
:1007900081E066DDE7C0C03283E0D80721F464E081
:1007A00082E05EDDDFC0C115E8E0DE0721F461E034
:1007B00083E056DDD7C0C115F9E0DF0721F461E021
:1007C00084E04EDDCFC0C1158AE0D80721F461E096
:1007D00085E046DDC7C0C115EBE0DE0721F461E02E
:1007E00086E03EDDBFC0C034F8E0DF0721F462E000
:1007F00083E036DDB7C0C03489E0D80721F462E079
:1008000084E02EDDAFC0C034EAE0DE0721F462E010
:1008100085E026DDA7C0C034FBE0DF0721F462E0FD
:1008200086E01EDD9FC0C03988E0D80721F464E06F
:1008300083E016DD97C0C039E9E0DE0721F464E00B
:1008400084E00EDD8FC0C039FAE0DF0721F464E0F8
:1008500085E006DD87C0C0398BE0D80721F464E06D
:1008600086E0FEDC7FC0C03CE8E0DE0721F468E003
:1008700083E0F6DC77C0C03CF9E0DF0721F468E0F4
:1008800084E0EEDC6FC0C03C8AE0D80721F468E069
:1008900085E0E6DC67C0C03CEBE0DE0721F468E001
:1008A00086E0DEDC5FC0C03AF8E0DF0721F460E1FB
:1008B00083E0D6DC57C0C03A89E0D80721F460E174
:1008C00084E0CEDC4FC0C03AEAE0DE0721F460E10C
:1008D00085E0C6DC47C0C03AFBE0DF0721F460E1F9
:1008E00086E0BEDC3FC0C03B88E0D80721F460E270
:1008F00083E0B6DC37C0C03BE9E0DE0721F460E20C
:1009000084E0AEDC2FC0C03BFAE0DF0721F460E2F8
:1009100085E0A6DC27C0C03B8BE0D80721F460E26D
:1009200086E09EDC1FC0C038E4E0DE0721F460E40E
:1009300083E096DC17C0C039F4E0DF0721F460E4FF
:1009400084E08EDC0FC0C03A84E0D80721F460E474
:1009500085E086DC07C0C03BE4E0DE0719F460E414
:1009600086E07EDC8D818F738D83F8019481858193
:10097000892B9681911198E0892B8D83F801408114
:1009800051816281738100E814E82EE130E0CE01EC
:1009900095DD9C8198609C839C8190619C83DF9114
:1009A000CF911F910F910895CF93DF93CDB7DEB70D
:1009B0002797CDBFDEBFE0EAF8E0848188608483BA
:1009C00084E08093A006E6E0F0E284818D83858157
:1009D0008E8386818F8380819181A281B381898377
:1009E0009A83AB83BC8360E186E03ADCBE016F5F33
:1009F0007F4F80EA9BE077DE2796CDBFDEBFDF9199
:100A0000CF9108954F925F926F927F928F929F92B3
:100A1000AF92BF92CF92DF92EF92FF920F931F930C
:100A2000CF93DF93CDB7DEB7C456D109CDBFDEBFBC
:100A3000B62EA72E982E892E742E652E522E432E5A
:100A4000C701B6019E012F5F3F4F790124E6F701F0
:100A500011922A95E9F720E030E048EC52E4E7D320
:100A600069D39F938F937F936F931F930F934F92AD
:100A70005F926F927F928F929F92AF92BF9284E12A
:100A800090E29F938F93FF92EF92F7D437D0FF922B
:100A9000EF92B0D4CDBFDEBFCC59DF4FCDBFDEBFAC
:100AA000DF91CF911F910F91FF90EF90DF90CF904A
:100AB000BF90AF909F908F907F906F905F904F907E
:100AC000089510928406E0E0FAE027E0208386A3F0
:100AD00097A326A137A186A197A170E00BD4261B6E
:100AE000370B22A733A70895CF93DF93EB01E0DC08
:100AF0008883DF91CF910895D3CC0895CF93DF936E
:100B0000CDB7DEB72797CDBFDEBFE0E4F6E088E0E3
:100B1000818385838FEF848380EA98E080935D20D2
:100B200090935E208CE795E080935B2090935C200F
:100B300084E795E08093592090935A20EDE0F0E20D
:100B400084818D8385818E8386818F83808191814D
:100B5000A281B38189839A83AB83BC8360E183E004
:100B60007FDBBE016F5F7F4F80EA98E0BCDD64E60B
:100B700071E08DE791E0F4D32796CDBFDEBFDF9122
:100B8000CF910895009709F435C1803C910521F477
:100B900060E180E065CB0895803424E0920721F481
:100BA00068E080E05DCB0895811524E0920721F490
:100BB00064E080E055CB0895803821E0920721F46D
:100BC00062E080E04DCB0895811521E0920721F489
:100BD00061E080E045CB0895803823E0920721F45E
:100BE00061E081E03DCB0895803923E0920721F454
:100BF00061E082E035CB0895811522E0920721F46F
:100C000062E081E02DCB0895803422E0920721F448
:100C100062E082E025CB0895811523E0920721F45C
:100C200064E081E01DCB0895803223E0920721F437
:100C300064E082E015CB0895811528E0920721F445
:100C400061E083E00DCB0895811529E0920721F43E
:100C500061E084E005CB089581152AE0920721F434
:100C600061E085E0FDCA089581152BE0920721F42B
:100C700061E086E0F5CA0895803428E0920721F407
:100C800062E083E0EDCA0895803429E0920721F400
:100C900062E084E0E5CA089580342AE0920721F4F6
:100CA00062E085E0DDCA089580342BE0920721F4EC
:100CB00062E086E0D5CA0895803928E0920721F4E1
:100CC00064E083E0CDCA0895803929E0920721F4D9
:100CD00064E084E0C5CA089580392AE0920721F4CF
:100CE00064E085E0BDCA089580392BE0920721F4C5
:100CF00064E086E0B5CA0895803C28E0920721F4BC
:100D000068E083E0ADCA0895803C29E0920721F4B1
:100D100068E084E0A5CA0895803C2AE0920721F4A7
:100D200068E085E09DCA0895803C2BE0920721F49D
:100D300068E086E095CA0895803A28E0920721F499
:100D400060E183E08DCA0895803A29E0920721F49A
:100D500060E184E085CA0895803A2AE0920721F490
:100D600060E185E07DCA0895803A2BE0920721F486
:100D700060E186E075CA0895803B28E0920721F47F
:100D800060E283E06DCA0895803B29E0920721F478
:100D900060E284E065CA0895803B2AE0920721F46E
:100DA00060E285E05DCA0895803B2BE0920721F464
:100DB00060E286E055CA0895803824E0920721F465
:100DC00060E483E04DCA0895803924E0920721F45D
:100DD00060E484E045CA0895803A24E0920721F453
:100DE00060E485E03DCA0895803B944019F460E4D6
:100DF00086E036CA089593DA23DA80EA9BE0C2DE01
:100E000080E09AE0BFDE80EC98E0BCDE64E085E044
:100E100027DA74DEC9DDE0E6F6E08FEF8083A0E03C
:100E2000B6E08C93789483E08093060A9AE1908BE5
:100E3000918B81E0828722E0238725E021875096ED
:100E40009C9350971A968C931A9719968C9320938B
:100E5000A20066E484E39CE034DE8AE290E29F93A1
:100E60008F93C8D20F900F90C5E2D0E280914E20B0
:100E70008130E1F743DE8091552090915620A0917A
:100E80005720B0915820BF93AF939F938F93DF93D8
:100E9000CF93B0D210924E200F900F900F900F90E2
:100EA0000F900F90E3CF1F920F920FB60F92112465
:100EB00008B60F9218BE09B60F9219BE0BB60F9264
:100EC0001BBECF92DF92EF92FF920F931F932F934F
:100ED0003F934F935F936F937F938F939F93AF93C2
:100EE000BF93CF93EF93FF93CFB7F89480915520A2
:100EF00090915620A0915720B09158200196A11DA5
:100F0000B11D8093552090935620A0935720B09305
:100F1000582081E080934E2000914F201091502066
:100F200020915120309152204091532050915420D3
:100F300060915520709156208091572090915820B3
:100F40000F2EC12CD12CF0EAEF2EF0E4FF2EF02D65
:100F500059DD10925320109254201092512010927B
:100F6000522010924F2010925020CFBFFF91EF914E
:100F7000CF91BF91AF919F918F917F916F915F9131
:100F80004F913F912F911F910F91FF90EF90DF9024
:100F9000CF900F900BBE0F9009BE0F9008BE0F9020
:100FA0000FBE0F901F9018951F920F920FB60F92C1
:100FB000112408B60F9218BE09B60F9219BE0BB6CF
:100FC0000F921BBE2F933F934F935F936F937F932B
:100FD0008F939F93AF93BF93CF93EF93FF93CFB72D
:100FE000F89489E390E219D2809153209091542093
:100FF00001968093532090935420CFBFFF91EF919F
:10100000CF91BF91AF919F918F917F916F915F91A0
:101010004F913F912F910F900BBE0F9009BE0F90F3
:1010200008BE0F900FBE0F901F9018951F920F9241
:101030000FB60F92112408B60F9218BE09B60F9280
:1010400019BE0BB60F921BBE2F933F934F935F9326
:101050006F937F938F939F93AF93BF93CF93EF93B0
:10106000FF93CFB7F89480E490E2D7D180915120DC
:101070009091522001968093512090935220CFBF9F
:10108000FF91EF91CF91BF91AF919F918F917F9100
:101090006F915F914F913F912F910F900BBE0F90E9
:1010A00009BE0F9008BE0F900FBE0F901F901895AD
:1010B0001F920F920FB60F92112408B60F9218BE0E
:1010C00009B60F9219BE0BB60F921BBE2F933F931A
:1010D0004F935F936F937F938F939F93AF93BF9340
:1010E000CF93EF93FF93CFB7F89486E490E295D136
:1010F00080914F2090915020019680934F209093A3
:101100005020CFBFFF91EF91CF91BF91AF919F91B1
:101110008F917F916F915F914F913F912F910F90A0
:101120000BBE0F9009BE0F9008BE0F900FBE0F9020
:101130001F9018955BD088F09F5790F0B92F992792
:10114000B751A0F0D1F0660F771F881F991F1AF0D2
:10115000BA95C9F712C0B13081F062D0B1E00895FC
:101160005FC0672F782F8827B85F39F0B93FCCF37D
:10117000869577956795B395D9F73EF490958095C8
:10118000709561957F4F8F4F9F4F089597F99F6797
:1011900080E870E060E008959FEF80EC08950024FF
:1011A0000A941616170618060906089500240A94CC
:1011B00012161306140605060895092E0394000C52
:1011C00011F4882352F0BB0F40F4BF2B11F460FFE1
:1011D00004C06F5F7F4F8F4F9F4F089557FD90580A
:1011E000440F551F59F05F3F71F04795880F97FBEB
:1011F000991F61F09F3F79F08795089512161306A5
:101200001406551FF2CF4695F1DF08C016161706D3
:101210001806991FF1CF8695710561050894089508
:10122000E894BB2766277727CB0197F908950BD061
:10123000C4CFB5DF28F0BADF18F0952309F0A6CFA8
:10124000ABCF1124EECFCADFA0F3959FD1F3950F5A
:1012500050E0551F629FF001729FBB27F00DB11D3A
:10126000639FAA27F00DB11DAA1F649F6627B00DCA
:10127000A11D661F829F2227B00DA11D621F739FB3
:10128000B00DA11D621F839FA00D611D221F749FC1
:101290003327A00D611D231F849F600D211D822F08
:1012A000762F6A2F11249F5750408AF0E1F088234F
:1012B0004AF0EE0FFF1FBB1F661F771F881F91505C
:1012C0005040A9F79E3F510570F060CFAACF5F3F15
:1012D000ECF3983EDCF3869577956795B795F7958F
:1012E000E7959F5FC1F7FE2B880F911D9695879517
:1012F00097F90895AA1BBB1B51E107C0AA1FBB1F8A
:10130000A617B70710F0A61BB70B881F991F5A9591
:10131000A9F780959095BC01CD010895A1E21A2E00
:10132000AA1BBB1BFD010DC0AA1FBB1FEE1FFF1F89
:10133000A217B307E407F50720F0A21BB30BE40BD9
:10134000F50B661F771F881F991F1A9469F7609520
:101350007095809590959B01AC01BD01CF010895DA
:101360000F931F93CF93DF93009731F461157105AD
:1013700019F480E090E039C08B01EC016EE070E080
:1013800081E090E08BD2FC01892B99F380E8838384
:101390000115110571F00287138781E8838380911D
:1013A0005F2090916020892B21F4E0935F20F093DF
:1013B00060202097C9F0C087D187838182608383B2
:1013C0008091612090916220892B71F4E0936120DB
:1013D000F09362208091632090916420892B21F406
:1013E000E0936320F0936420CF01DF91CF911F91B0
:1013F0000F910895CF93DF93CDB7DEB7AE014A5F6B
:101400005F4FFA0161917191AF01809161209091DC
:1014100062205CD0DF91CF9108950F931F93CF93FB
:10142000DF93E0916120F0916220238121FF1BC0B6
:101430008C01D0E0C0E0F80181918F0160916120C2
:1014400070916220DB011896ED91FC911997882329
:1014500031F01995892B79F3DFEFCFEFECCF8AE0EC
:101460001995892B19F08FEF9FEF02C08D2F9C2FBC
:10147000DF91CF911F910F9108950F931F93CF93F9
:10148000DF93CDB7DEB72E97CDBFDEBF0E891F89A4
:1014900086E08C8309831A838FEF9FE78D839E8379
:1014A000AE01465E5F4F688D798DCE0101960ED0FC
:1014B0002F813885F801E20FF31F10822E96CDBFE1
:1014C000DEBFDF91CF911F910F9108952F923F9230
:1014D0004F925F926F927F928F929F92AF92BF9244
:1014E000CF92DF92EF92FF920F931F93CF93DF93F0
:1014F000CDB7DEB72C97CDBFDEBF7C016B018A0173
:10150000FC0116821782838181FFB0C1CE01019652
:101510004C01F7019381F60193FD859193FF819131
:101520006F01882309F49EC1853239F493FD8591BA
:1015300093FF81916F01853221F4B70190E012D3BE
:10154000E8CF512C312C20E02032A0F48B3269F00E
:1015500030F4803259F0833269F420612CC08D322E
:1015600039F0803339F4216026C02260246023C022
:10157000286021C027FD27C030ED380F3A3078F4BD
:1015800026FF06C0FAE05F9E300D1124532E13C0D3
:101590008AE0389E300D1124332E20620CC08E322A
:1015A00021F426FD5FC1206406C08C3611F420684A
:1015B00002C0883641F4F60193FD859193FF819135
:1015C0006F018111C1CF982F9F7D9554933028F4DE
:1015D0000C5F1F4FFFE3F9830DC0833631F0833773
:1015E00071F0833509F057C021C0F80180818983EB
:1015F0000E5F1F4F44244394512C540114C03801F2
:10160000F2E06F0E711CF801A080B18026FF03C0CC
:10161000652D70E002C06FEF7FEFC5012C8797D278
:101620002C0183012C852F77222E16C03801F2E081
:101630006F0E711CF801A080B18026FF03C0652DDC
:1016400070E002C06FEF7FEFC5012C876ED22C01D6
:101650002C852068222E830123FC19C0832D90E065
:1016600048165906A0F4B70180E290E07BD23A9484
:10167000F5CFF50127FC859127FE81915F01B70128
:1016800090E070D231103A94F1E04F1A51084114B1
:10169000510479F7DEC0843611F0893631F5F8014E
:1016A00027FF07C060817181828193810C5F1F4F8A
:1016B00008C060817181072E000C880B990B0E5FAA
:1016C0001F4F2F76722E97FF09C0909580957095C9
:1016D00061957F4F8F4F9F4F2068722E2AE030E038
:1016E000A40178D2A82EA81843C0853729F42F7EEC
:1016F000B22E2AE030E025C0F22FF97FBF2E8F36C0
:10170000C1F018F4883579F0ADC0803719F088370A
:1017100021F0A8C02F2F2061B22EB4FE0DC08B2D5A
:101720008460B82E09C024FF0AC09F2F9660B92E8E
:1017300006C028E030E005C020E130E002C020E132
:1017400032E0F801B7FE07C0608171818281938128
:101750000C5F1F4F06C06081718180E090E00E5FDA
:101760001F4FA40137D2A82EA818FB2DFF777F2E7C
:1017700076FE0BC0372D3E7FA51450F474FE0AC0D0
:1017800072FC08C0372D3E7E05C0BA2C372D03C031
:10179000BA2C01C0B52C34FF0DC0FE01EA0DF11DBD
:1017A0008081803311F4397E09C032FF06C0B394C2
:1017B000B39404C0832F867809F0B39433FD12C02C
:1017C00030FF06C05A2CB31418F4530C5B18B32C1A
:1017D000B31460F4B70180E290E03C87C3D1B394C6
:1017E0003C85F6CFB31410F43B1801C0312C34FF04
:1017F00011C0B70180E390E03C87B4D13C8532FF53
:1018000016C031FD03C088E790E002C088E590E093
:10181000B7010CC0832F867851F031FF02C08BE2F4
:1018200001C080E237FD8DE2B70190E09BD1A514A5
:1018300030F4B70180E390E095D15A94F8CFAA94A0
:10184000F401EA0DF11D8081B70190E08BD1A11068
:10185000F6CF332009F45DCEB70180E290E082D16B
:101860003A94F7CFF7018681978102C08FEF9FEFFF
:101870002C96CDBFDEBFDF91CF911F910F91FF90CE
:10188000EF90DF90CF90BF90AF909F908F907F9020
:101890006F905F904F903F902F9008950F931F93FC
:1018A000CF93DF93869F8001879F100D969F100D29
:1018B0001124C8010DD0EC01009721F0A80160E0CF
:1018C00070E03ED1CE01DF91CF911F910F9108952D
:1018D000CF93DF938230910510F482E090E0E091A5
:1018E0006720F091682020E030E0C0E0D0E0309741
:1018F00011F14081518148175907C0F04817590725
:1019000061F482819381209719F08A839B832BC095
:10191000809367209093682026C02115310519F027
:101920004217530718F49A01BE01DF01EF0102804C
:10193000F381E02DDCCF2115310509F1281B390B8E
:101940002430310590F412968D919C911397611576
:10195000710521F0FB018283938304C0809367208B
:1019600090936820FD01329644C0FD01E20FF31F01
:1019700081939193225031092D933C933AC0209149
:10198000652030916620232B41F420910220309174
:101990000320209365203093662020910020309111
:1019A00001202115310541F42DB73EB740910420A7
:1019B00050910520241B350BE0916520F0916620A5
:1019C000E217F307A0F42E1B3F0B2817390778F016
:1019D000AC014E5F5F4F2417350748F04E0F5F1F75
:1019E00040936520509366208193919302C0E0E07C
:1019F000F0E0CF01DF91CF9108950F931F93CF9324
:101A0000DF93009709F48CC0FC0132971282138295
:101A100000916720109168200115110581F4208143
:101A20003181820F931F2091652030916620281705
:101A3000390779F5E0936520F093662071C0D801ED
:101A400040E050E0AE17BF0750F412962D913C9144
:101A50001397AD012115310509F1D901F3CF9D018E
:101A6000DA012283338360817181860F971F821789
:101A7000930769F4EC0128813981260F371F2E5F07
:101A80003F4F208331838A819B8182839383452BBF
:101A900029F4E0936720F093682042C01296ED93FA
:101AA000FC931397ED01499159919E01240F351F25
:101AB000E217F30771F480819181840F951F0296DC
:101AC0008D939C9311978281938112968D939C9311
:101AD0001397E0E0F0E0D80112968D919C91139756
:101AE000009719F0F8018C01F6CF8D919C91980127
:101AF0002E5F3F4F820F931F20916520309166200B
:101B00002817390769F4309729F41092672010924A
:101B1000682002C012821382009365201093662011
:101B2000DF91CF911F910F910895FC0105906150B5
:101B300070400110D8F7809590958E0F9F1F0895E3
:101B4000DC0101C06D9341505040E0F70895FC0165
:101B50006150704001900110D8F7809590958E0FDC
:101B60009F1F08950F931F93CF93DF93FB01238152
:101B700021FD03C08FEF9FEF28C022FF16C04681D2
:101B80005781248135814217530744F4A081B181E4
:101B90009D012F5F3F4F208331838C9326813781B6
:101BA0002F5F3F4F2683378310C0EB01092F182F7B
:101BB0000084F185E02D1995892BE1F68E819F81B6
:101BC00001968E839F83812F902FDF91CF911F915C
:101BD0000F910895FA01AA27283051F1203181F19F
:101BE000E8946F936E7F6E5F7F4F8F4F9F4FAF4F25
:101BF000B1E03ED0B4E03CD0670F781F891F9A1F38
:101C0000A11D680F791F8A1F911DA11D6A0F711DEB
:101C1000811D911DA11D20D009F468943F912AE0F7
:101C2000269F11243019305D3193DEF6CF010895DF
:101C3000462F4770405D4193B3E00FD0C9F7F6CF10
:101C4000462F4F70405D4A3318F0495D31FD4052D8
:101C5000419302D0A9F7EACFB4E0A695979587956E
:101C600077956795BA95C9F700976105710508954D
:101C70009B01AC010A2E06945795479537952795F9
:101C8000BA95C9F7620F731F841F951FA01D089591
:041C9000F894FFCFF6
:101C940000006920200000C2010003000000C2010E
:101CA40000030001256C752C2025752C2025752C2E
:101CB4002025752C20256C750A00536574757020D9
:101CC40066696E697368656400616C70686121009F
:0E1CD40062657461210067616D6D6121000021
:00000001FF
